{
	"contracts/reentrancyAttack_solution2.sol": {
		"Bank": {
			"abi": [
				{
					"inputs": [],
					"stateMutability": "payable",
					"type": "constructor"
				},
				{
					"inputs": [
						{
							"internalType": "address",
							"name": "",
							"type": "address"
						}
					],
					"name": "balances",
					"outputs": [
						{
							"internalType": "uint256",
							"name": "",
							"type": "uint256"
						}
					],
					"stateMutability": "view",
					"type": "function"
				},
				{
					"inputs": [],
					"name": "chekcBalance",
					"outputs": [
						{
							"internalType": "uint256",
							"name": "",
							"type": "uint256"
						}
					],
					"stateMutability": "view",
					"type": "function"
				},
				{
					"inputs": [],
					"name": "deposit",
					"outputs": [],
					"stateMutability": "payable",
					"type": "function"
				},
				{
					"inputs": [],
					"name": "withdraw",
					"outputs": [],
					"stateMutability": "nonpayable",
					"type": "function"
				}
			],
			"devdoc": {
				"kind": "dev",
				"methods": {},
				"version": 1
			},
			"evm": {
				"assembly": "    /* \"contracts/reentrancyAttack_solution2.sol\":61:837  contract Bank {... */\n  mstore(0x40, 0x80)\n  dataSize(sub_0)\n  dup1\n  dataOffset(sub_0)\n  0x00\n  codecopy\n  0x00\n  return\nstop\n\nsub_0: assembly {\n        /* \"contracts/reentrancyAttack_solution2.sol\":61:837  contract Bank {... */\n      mstore(0x40, 0x80)\n      jumpi(tag_1, lt(calldatasize, 0x04))\n      shr(0xe0, calldataload(0x00))\n      dup1\n      0x27e235e3\n      eq\n      tag_2\n      jumpi\n      dup1\n      0x300180e9\n      eq\n      tag_3\n      jumpi\n      dup1\n      0x3ccfd60b\n      eq\n      tag_4\n      jumpi\n      dup1\n      0xd0e30db0\n      eq\n      tag_5\n      jumpi\n    tag_1:\n      0x00\n      dup1\n      revert\n        /* \"contracts/reentrancyAttack_solution2.sol\":86:126  mapping(address => uint) public balances */\n    tag_2:\n      callvalue\n      dup1\n      iszero\n      tag_6\n      jumpi\n      0x00\n      dup1\n      revert\n    tag_6:\n      pop\n      tag_7\n      0x04\n      dup1\n      calldatasize\n      sub\n      dup2\n      add\n      swap1\n      tag_8\n      swap2\n      swap1\n      tag_9\n      jump\t// in\n    tag_8:\n      tag_10\n      jump\t// in\n    tag_7:\n      mload(0x40)\n      tag_11\n      swap2\n      swap1\n      tag_12\n      jump\t// in\n    tag_11:\n      mload(0x40)\n      dup1\n      swap2\n      sub\n      swap1\n      return\n        /* \"contracts/reentrancyAttack_solution2.sol\":733:830  function chekcBalance() external view returns(uint) {... */\n    tag_3:\n      callvalue\n      dup1\n      iszero\n      tag_13\n      jumpi\n      0x00\n      dup1\n      revert\n    tag_13:\n      pop\n      tag_14\n      tag_15\n      jump\t// in\n    tag_14:\n      mload(0x40)\n      tag_16\n      swap2\n      swap1\n      tag_12\n      jump\t// in\n    tag_16:\n      mload(0x40)\n      dup1\n      swap2\n      sub\n      swap1\n      return\n        /* \"contracts/reentrancyAttack_solution2.sol\":351:723  function withdraw() external {... */\n    tag_4:\n      callvalue\n      dup1\n      iszero\n      tag_17\n      jumpi\n      0x00\n      dup1\n      revert\n    tag_17:\n      pop\n      tag_18\n      tag_19\n      jump\t// in\n    tag_18:\n      stop\n        /* \"contracts/reentrancyAttack_solution2.sol\":259:345  function deposit() external payable {... */\n    tag_5:\n      tag_20\n      tag_21\n      jump\t// in\n    tag_20:\n      stop\n        /* \"contracts/reentrancyAttack_solution2.sol\":86:126  mapping(address => uint) public balances */\n    tag_10:\n      mstore(0x20, 0x00)\n      dup1\n      0x00\n      mstore\n      keccak256(0x00, 0x40)\n      0x00\n      swap2\n      pop\n      swap1\n      pop\n      sload\n      dup2\n      jump\t// out\n        /* \"contracts/reentrancyAttack_solution2.sol\":733:830  function chekcBalance() external view returns(uint) {... */\n    tag_15:\n        /* \"contracts/reentrancyAttack_solution2.sol\":779:783  uint */\n      0x00\n        /* \"contracts/reentrancyAttack_solution2.sol\":802:823  address(this).balance */\n      selfbalance\n        /* \"contracts/reentrancyAttack_solution2.sol\":795:823  return address(this).balance */\n      swap1\n      pop\n        /* \"contracts/reentrancyAttack_solution2.sol\":733:830  function chekcBalance() external view returns(uint) {... */\n      swap1\n      jump\t// out\n        /* \"contracts/reentrancyAttack_solution2.sol\":351:723  function withdraw() external {... */\n    tag_19:\n        /* \"contracts/reentrancyAttack_solution2.sol\":410:415  false */\n      0x00\n        /* \"contracts/reentrancyAttack_solution2.sol\":398:415  isEntering==false */\n      iszero\n      iszero\n        /* \"contracts/reentrancyAttack_solution2.sol\":398:408  isEntering */\n      0x01\n      0x00\n      swap1\n      sload\n      swap1\n      0x0100\n      exp\n      swap1\n      div\n      0xff\n      and\n        /* \"contracts/reentrancyAttack_solution2.sol\":398:415  isEntering==false */\n      iszero\n      iszero\n      eq\n        /* \"contracts/reentrancyAttack_solution2.sol\":390:439  require(isEntering==false, \"ERROR : noreentrant\") */\n      tag_24\n      jumpi\n      mload(0x40)\n      0x08c379a000000000000000000000000000000000000000000000000000000000\n      dup2\n      mstore\n      0x04\n      add\n      tag_25\n      swap1\n      tag_26\n      jump\t// in\n    tag_25:\n      mload(0x40)\n      dup1\n      swap2\n      sub\n      swap1\n      revert\n    tag_24:\n        /* \"contracts/reentrancyAttack_solution2.sol\":462:466  true */\n      0x01\n        /* \"contracts/reentrancyAttack_solution2.sol\":449:459  isEntering */\n      dup1\n      0x00\n        /* \"contracts/reentrancyAttack_solution2.sol\":449:466  isEntering = true */\n      0x0100\n      exp\n      dup2\n      sload\n      dup2\n      0xff\n      mul\n      not\n      and\n      swap1\n      dup4\n      iszero\n      iszero\n      mul\n      or\n      swap1\n      sstore\n      pop\n        /* \"contracts/reentrancyAttack_solution2.sol\":535:554  uint currentBalance */\n      0x00\n        /* \"contracts/reentrancyAttack_solution2.sol\":557:565  balances */\n      dup1\n        /* \"contracts/reentrancyAttack_solution2.sol\":557:577  balances[msg.sender] */\n      0x00\n        /* \"contracts/reentrancyAttack_solution2.sol\":566:576  msg.sender */\n      caller\n        /* \"contracts/reentrancyAttack_solution2.sol\":557:577  balances[msg.sender] */\n      0xffffffffffffffffffffffffffffffffffffffff\n      and\n      0xffffffffffffffffffffffffffffffffffffffff\n      and\n      dup2\n      mstore\n      0x20\n      add\n      swap1\n      dup2\n      mstore\n      0x20\n      add\n      0x00\n      keccak256\n      sload\n        /* \"contracts/reentrancyAttack_solution2.sol\":535:577  uint currentBalance = balances[msg.sender] */\n      swap1\n      pop\n        /* \"contracts/reentrancyAttack_solution2.sol\":611:612  0 */\n      0x00\n        /* \"contracts/reentrancyAttack_solution2.sol\":588:596  balances */\n      dup1\n        /* \"contracts/reentrancyAttack_solution2.sol\":588:608  balances[msg.sender] */\n      0x00\n        /* \"contracts/reentrancyAttack_solution2.sol\":597:607  msg.sender */\n      caller\n        /* \"contracts/reentrancyAttack_solution2.sol\":588:608  balances[msg.sender] */\n      0xffffffffffffffffffffffffffffffffffffffff\n      and\n      0xffffffffffffffffffffffffffffffffffffffff\n      and\n      dup2\n      mstore\n      0x20\n      add\n      swap1\n      dup2\n      mstore\n      0x20\n      add\n      0x00\n      keccak256\n        /* \"contracts/reentrancyAttack_solution2.sol\":588:612  balances[msg.sender] = 0 */\n      dup2\n      swap1\n      sstore\n      pop\n        /* \"contracts/reentrancyAttack_solution2.sol\":625:636  bool result */\n      0x00\n        /* \"contracts/reentrancyAttack_solution2.sol\":641:651  msg.sender */\n      caller\n        /* \"contracts/reentrancyAttack_solution2.sol\":641:656  msg.sender.call */\n      0xffffffffffffffffffffffffffffffffffffffff\n      and\n        /* \"contracts/reentrancyAttack_solution2.sol\":663:677  currentBalance */\n      dup3\n        /* \"contracts/reentrancyAttack_solution2.sol\":641:682  msg.sender.call{value:currentBalance}(\"\") */\n      mload(0x40)\n      tag_27\n      swap1\n      tag_28\n      jump\t// in\n    tag_27:\n      0x00\n      mload(0x40)\n      dup1\n      dup4\n      sub\n      dup2\n      dup6\n      dup8\n      gas\n      call\n      swap3\n      pop\n      pop\n      pop\n      returndatasize\n      dup1\n      0x00\n      dup2\n      eq\n      tag_31\n      jumpi\n      mload(0x40)\n      swap2\n      pop\n      and(add(returndatasize, 0x3f), not(0x1f))\n      dup3\n      add\n      0x40\n      mstore\n      returndatasize\n      dup3\n      mstore\n      returndatasize\n      0x00\n      0x20\n      dup5\n      add\n      returndatacopy\n      jump(tag_30)\n    tag_31:\n      0x60\n      swap2\n      pop\n    tag_30:\n      pop\n        /* \"contracts/reentrancyAttack_solution2.sol\":624:682  (bool result,) = msg.sender.call{value:currentBalance}(\"\") */\n      pop\n      swap1\n      pop\n        /* \"contracts/reentrancyAttack_solution2.sol\":700:706  result */\n      dup1\n        /* \"contracts/reentrancyAttack_solution2.sol\":692:716  require(result, \"ERROR\") */\n      tag_32\n      jumpi\n      mload(0x40)\n      0x08c379a000000000000000000000000000000000000000000000000000000000\n      dup2\n      mstore\n      0x04\n      add\n      tag_33\n      swap1\n      tag_34\n      jump\t// in\n    tag_33:\n      mload(0x40)\n      dup1\n      swap2\n      sub\n      swap1\n      revert\n    tag_32:\n        /* \"contracts/reentrancyAttack_solution2.sol\":351:723  function withdraw() external {... */\n      pop\n      pop\n      jump\t// out\n        /* \"contracts/reentrancyAttack_solution2.sol\":259:345  function deposit() external payable {... */\n    tag_21:\n        /* \"contracts/reentrancyAttack_solution2.sol\":329:338  msg.value */\n      callvalue\n        /* \"contracts/reentrancyAttack_solution2.sol\":305:313  balances */\n      0x00\n        /* \"contracts/reentrancyAttack_solution2.sol\":305:325  balances[msg.sender] */\n      dup1\n        /* \"contracts/reentrancyAttack_solution2.sol\":314:324  msg.sender */\n      caller\n        /* \"contracts/reentrancyAttack_solution2.sol\":305:325  balances[msg.sender] */\n      0xffffffffffffffffffffffffffffffffffffffff\n      and\n      0xffffffffffffffffffffffffffffffffffffffff\n      and\n      dup2\n      mstore\n      0x20\n      add\n      swap1\n      dup2\n      mstore\n      0x20\n      add\n      0x00\n      keccak256\n      0x00\n        /* \"contracts/reentrancyAttack_solution2.sol\":305:338  balances[msg.sender] += msg.value */\n      dup3\n      dup3\n      sload\n      tag_36\n      swap2\n      swap1\n      tag_37\n      jump\t// in\n    tag_36:\n      swap3\n      pop\n      pop\n      dup2\n      swap1\n      sstore\n      pop\n        /* \"contracts/reentrancyAttack_solution2.sol\":259:345  function deposit() external payable {... */\n      jump\t// out\n        /* \"#utility.yul\":7:146   */\n    tag_39:\n      0x00\n        /* \"#utility.yul\":91:97   */\n      dup2\n        /* \"#utility.yul\":78:98   */\n      calldataload\n        /* \"#utility.yul\":69:98   */\n      swap1\n      pop\n        /* \"#utility.yul\":107:140   */\n      tag_41\n        /* \"#utility.yul\":134:139   */\n      dup2\n        /* \"#utility.yul\":107:140   */\n      tag_42\n      jump\t// in\n    tag_41:\n        /* \"#utility.yul\":59:146   */\n      swap3\n      swap2\n      pop\n      pop\n      jump\t// out\n        /* \"#utility.yul\":152:414   */\n    tag_9:\n      0x00\n        /* \"#utility.yul\":260:262   */\n      0x20\n        /* \"#utility.yul\":248:257   */\n      dup3\n        /* \"#utility.yul\":239:246   */\n      dup5\n        /* \"#utility.yul\":235:258   */\n      sub\n        /* \"#utility.yul\":231:263   */\n      slt\n        /* \"#utility.yul\":228:230   */\n      iszero\n      tag_44\n      jumpi\n        /* \"#utility.yul\":276:277   */\n      0x00\n        /* \"#utility.yul\":273:274   */\n      dup1\n        /* \"#utility.yul\":266:278   */\n      revert\n        /* \"#utility.yul\":228:230   */\n    tag_44:\n        /* \"#utility.yul\":319:320   */\n      0x00\n        /* \"#utility.yul\":344:397   */\n      tag_45\n        /* \"#utility.yul\":389:396   */\n      dup5\n        /* \"#utility.yul\":380:386   */\n      dup3\n        /* \"#utility.yul\":369:378   */\n      dup6\n        /* \"#utility.yul\":365:387   */\n      add\n        /* \"#utility.yul\":344:397   */\n      tag_39\n      jump\t// in\n    tag_45:\n        /* \"#utility.yul\":334:397   */\n      swap2\n      pop\n        /* \"#utility.yul\":290:407   */\n      pop\n        /* \"#utility.yul\":218:414   */\n      swap3\n      swap2\n      pop\n      pop\n      jump\t// out\n        /* \"#utility.yul\":420:722   */\n    tag_46:\n      0x00\n        /* \"#utility.yul\":583:649   */\n      tag_48\n        /* \"#utility.yul\":647:648   */\n      0x05\n        /* \"#utility.yul\":642:645   */\n      dup4\n        /* \"#utility.yul\":583:649   */\n      tag_49\n      jump\t// in\n    tag_48:\n        /* \"#utility.yul\":576:649   */\n      swap2\n      pop\n        /* \"#utility.yul\":679:686   */\n      0x4552524f52000000000000000000000000000000000000000000000000000000\n        /* \"#utility.yul\":675:676   */\n      0x00\n        /* \"#utility.yul\":670:673   */\n      dup4\n        /* \"#utility.yul\":666:677   */\n      add\n        /* \"#utility.yul\":659:687   */\n      mstore\n        /* \"#utility.yul\":713:715   */\n      0x20\n        /* \"#utility.yul\":708:711   */\n      dup3\n        /* \"#utility.yul\":704:716   */\n      add\n        /* \"#utility.yul\":697:716   */\n      swap1\n      pop\n        /* \"#utility.yul\":566:722   */\n      swap2\n      swap1\n      pop\n      jump\t// out\n        /* \"#utility.yul\":728:1025   */\n    tag_50:\n      0x00\n        /* \"#utility.yul\":908:991   */\n      tag_52\n        /* \"#utility.yul\":989:990   */\n      0x00\n        /* \"#utility.yul\":984:987   */\n      dup4\n        /* \"#utility.yul\":908:991   */\n      tag_53\n      jump\t// in\n    tag_52:\n        /* \"#utility.yul\":901:991   */\n      swap2\n      pop\n        /* \"#utility.yul\":1017:1018   */\n      0x00\n        /* \"#utility.yul\":1012:1015   */\n      dup3\n        /* \"#utility.yul\":1008:1019   */\n      add\n        /* \"#utility.yul\":1001:1019   */\n      swap1\n      pop\n        /* \"#utility.yul\":891:1025   */\n      swap2\n      swap1\n      pop\n      jump\t// out\n        /* \"#utility.yul\":1031:1348   */\n    tag_54:\n      0x00\n        /* \"#utility.yul\":1194:1261   */\n      tag_56\n        /* \"#utility.yul\":1258:1260   */\n      0x13\n        /* \"#utility.yul\":1253:1256   */\n      dup4\n        /* \"#utility.yul\":1194:1261   */\n      tag_49\n      jump\t// in\n    tag_56:\n        /* \"#utility.yul\":1187:1261   */\n      swap2\n      pop\n        /* \"#utility.yul\":1291:1312   */\n      0x4552524f52203a206e6f7265656e7472616e7400000000000000000000000000\n        /* \"#utility.yul\":1287:1288   */\n      0x00\n        /* \"#utility.yul\":1282:1285   */\n      dup4\n        /* \"#utility.yul\":1278:1289   */\n      add\n        /* \"#utility.yul\":1271:1313   */\n      mstore\n        /* \"#utility.yul\":1339:1341   */\n      0x20\n        /* \"#utility.yul\":1334:1337   */\n      dup3\n        /* \"#utility.yul\":1330:1342   */\n      add\n        /* \"#utility.yul\":1323:1342   */\n      swap1\n      pop\n        /* \"#utility.yul\":1177:1348   */\n      swap2\n      swap1\n      pop\n      jump\t// out\n        /* \"#utility.yul\":1354:1472   */\n    tag_57:\n        /* \"#utility.yul\":1441:1465   */\n      tag_59\n        /* \"#utility.yul\":1459:1464   */\n      dup2\n        /* \"#utility.yul\":1441:1465   */\n      tag_60\n      jump\t// in\n    tag_59:\n        /* \"#utility.yul\":1436:1439   */\n      dup3\n        /* \"#utility.yul\":1429:1466   */\n      mstore\n        /* \"#utility.yul\":1419:1472   */\n      pop\n      pop\n      jump\t// out\n        /* \"#utility.yul\":1478:1857   */\n    tag_28:\n      0x00\n        /* \"#utility.yul\":1684:1831   */\n      tag_62\n        /* \"#utility.yul\":1827:1830   */\n      dup3\n        /* \"#utility.yul\":1684:1831   */\n      tag_50\n      jump\t// in\n    tag_62:\n        /* \"#utility.yul\":1677:1831   */\n      swap2\n      pop\n        /* \"#utility.yul\":1848:1851   */\n      dup2\n        /* \"#utility.yul\":1841:1851   */\n      swap1\n      pop\n        /* \"#utility.yul\":1666:1857   */\n      swap2\n      swap1\n      pop\n      jump\t// out\n        /* \"#utility.yul\":1863:2282   */\n    tag_34:\n      0x00\n        /* \"#utility.yul\":2067:2069   */\n      0x20\n        /* \"#utility.yul\":2056:2065   */\n      dup3\n        /* \"#utility.yul\":2052:2070   */\n      add\n        /* \"#utility.yul\":2044:2070   */\n      swap1\n      pop\n        /* \"#utility.yul\":2116:2125   */\n      dup2\n        /* \"#utility.yul\":2110:2114   */\n      dup2\n        /* \"#utility.yul\":2106:2126   */\n      sub\n        /* \"#utility.yul\":2102:2103   */\n      0x00\n        /* \"#utility.yul\":2091:2100   */\n      dup4\n        /* \"#utility.yul\":2087:2104   */\n      add\n        /* \"#utility.yul\":2080:2127   */\n      mstore\n        /* \"#utility.yul\":2144:2275   */\n      tag_64\n        /* \"#utility.yul\":2270:2274   */\n      dup2\n        /* \"#utility.yul\":2144:2275   */\n      tag_46\n      jump\t// in\n    tag_64:\n        /* \"#utility.yul\":2136:2275   */\n      swap1\n      pop\n        /* \"#utility.yul\":2034:2282   */\n      swap2\n      swap1\n      pop\n      jump\t// out\n        /* \"#utility.yul\":2288:2707   */\n    tag_26:\n      0x00\n        /* \"#utility.yul\":2492:2494   */\n      0x20\n        /* \"#utility.yul\":2481:2490   */\n      dup3\n        /* \"#utility.yul\":2477:2495   */\n      add\n        /* \"#utility.yul\":2469:2495   */\n      swap1\n      pop\n        /* \"#utility.yul\":2541:2550   */\n      dup2\n        /* \"#utility.yul\":2535:2539   */\n      dup2\n        /* \"#utility.yul\":2531:2551   */\n      sub\n        /* \"#utility.yul\":2527:2528   */\n      0x00\n        /* \"#utility.yul\":2516:2525   */\n      dup4\n        /* \"#utility.yul\":2512:2529   */\n      add\n        /* \"#utility.yul\":2505:2552   */\n      mstore\n        /* \"#utility.yul\":2569:2700   */\n      tag_66\n        /* \"#utility.yul\":2695:2699   */\n      dup2\n        /* \"#utility.yul\":2569:2700   */\n      tag_54\n      jump\t// in\n    tag_66:\n        /* \"#utility.yul\":2561:2700   */\n      swap1\n      pop\n        /* \"#utility.yul\":2459:2707   */\n      swap2\n      swap1\n      pop\n      jump\t// out\n        /* \"#utility.yul\":2713:2935   */\n    tag_12:\n      0x00\n        /* \"#utility.yul\":2844:2846   */\n      0x20\n        /* \"#utility.yul\":2833:2842   */\n      dup3\n        /* \"#utility.yul\":2829:2847   */\n      add\n        /* \"#utility.yul\":2821:2847   */\n      swap1\n      pop\n        /* \"#utility.yul\":2857:2928   */\n      tag_68\n        /* \"#utility.yul\":2925:2926   */\n      0x00\n        /* \"#utility.yul\":2914:2923   */\n      dup4\n        /* \"#utility.yul\":2910:2927   */\n      add\n        /* \"#utility.yul\":2901:2907   */\n      dup5\n        /* \"#utility.yul\":2857:2928   */\n      tag_57\n      jump\t// in\n    tag_68:\n        /* \"#utility.yul\":2811:2935   */\n      swap3\n      swap2\n      pop\n      pop\n      jump\t// out\n        /* \"#utility.yul\":2941:3088   */\n    tag_53:\n      0x00\n        /* \"#utility.yul\":3079:3082   */\n      dup2\n        /* \"#utility.yul\":3064:3082   */\n      swap1\n      pop\n        /* \"#utility.yul\":3054:3088   */\n      swap3\n      swap2\n      pop\n      pop\n      jump\t// out\n        /* \"#utility.yul\":3094:3263   */\n    tag_49:\n      0x00\n        /* \"#utility.yul\":3212:3218   */\n      dup3\n        /* \"#utility.yul\":3207:3210   */\n      dup3\n        /* \"#utility.yul\":3200:3219   */\n      mstore\n        /* \"#utility.yul\":3252:3256   */\n      0x20\n        /* \"#utility.yul\":3247:3250   */\n      dup3\n        /* \"#utility.yul\":3243:3257   */\n      add\n        /* \"#utility.yul\":3228:3257   */\n      swap1\n      pop\n        /* \"#utility.yul\":3190:3263   */\n      swap3\n      swap2\n      pop\n      pop\n      jump\t// out\n        /* \"#utility.yul\":3269:3574   */\n    tag_37:\n      0x00\n        /* \"#utility.yul\":3328:3348   */\n      tag_72\n        /* \"#utility.yul\":3346:3347   */\n      dup3\n        /* \"#utility.yul\":3328:3348   */\n      tag_60\n      jump\t// in\n    tag_72:\n        /* \"#utility.yul\":3323:3348   */\n      swap2\n      pop\n        /* \"#utility.yul\":3362:3382   */\n      tag_73\n        /* \"#utility.yul\":3380:3381   */\n      dup4\n        /* \"#utility.yul\":3362:3382   */\n      tag_60\n      jump\t// in\n    tag_73:\n        /* \"#utility.yul\":3357:3382   */\n      swap3\n      pop\n        /* \"#utility.yul\":3516:3517   */\n      dup3\n        /* \"#utility.yul\":3448:3514   */\n      0xffffffffffffffffffffffffffffffffffffffffffffffffffffffffffffffff\n        /* \"#utility.yul\":3444:3518   */\n      sub\n        /* \"#utility.yul\":3441:3442   */\n      dup3\n        /* \"#utility.yul\":3438:3519   */\n      gt\n        /* \"#utility.yul\":3435:3437   */\n      iszero\n      tag_74\n      jumpi\n        /* \"#utility.yul\":3522:3540   */\n      tag_75\n      tag_76\n      jump\t// in\n    tag_75:\n        /* \"#utility.yul\":3435:3437   */\n    tag_74:\n        /* \"#utility.yul\":3566:3567   */\n      dup3\n        /* \"#utility.yul\":3563:3564   */\n      dup3\n        /* \"#utility.yul\":3559:3568   */\n      add\n        /* \"#utility.yul\":3552:3568   */\n      swap1\n      pop\n        /* \"#utility.yul\":3313:3574   */\n      swap3\n      swap2\n      pop\n      pop\n      jump\t// out\n        /* \"#utility.yul\":3580:3676   */\n    tag_77:\n      0x00\n        /* \"#utility.yul\":3646:3670   */\n      tag_79\n        /* \"#utility.yul\":3664:3669   */\n      dup3\n        /* \"#utility.yul\":3646:3670   */\n      tag_80\n      jump\t// in\n    tag_79:\n        /* \"#utility.yul\":3635:3670   */\n      swap1\n      pop\n        /* \"#utility.yul\":3625:3676   */\n      swap2\n      swap1\n      pop\n      jump\t// out\n        /* \"#utility.yul\":3682:3808   */\n    tag_80:\n      0x00\n        /* \"#utility.yul\":3759:3801   */\n      0xffffffffffffffffffffffffffffffffffffffff\n        /* \"#utility.yul\":3752:3757   */\n      dup3\n        /* \"#utility.yul\":3748:3802   */\n      and\n        /* \"#utility.yul\":3737:3802   */\n      swap1\n      pop\n        /* \"#utility.yul\":3727:3808   */\n      swap2\n      swap1\n      pop\n      jump\t// out\n        /* \"#utility.yul\":3814:3891   */\n    tag_60:\n      0x00\n        /* \"#utility.yul\":3880:3885   */\n      dup2\n        /* \"#utility.yul\":3869:3885   */\n      swap1\n      pop\n        /* \"#utility.yul\":3859:3891   */\n      swap2\n      swap1\n      pop\n      jump\t// out\n        /* \"#utility.yul\":3897:4077   */\n    tag_76:\n        /* \"#utility.yul\":3945:4022   */\n      0x4e487b7100000000000000000000000000000000000000000000000000000000\n        /* \"#utility.yul\":3942:3943   */\n      0x00\n        /* \"#utility.yul\":3935:4023   */\n      mstore\n        /* \"#utility.yul\":4042:4046   */\n      0x11\n        /* \"#utility.yul\":4039:4040   */\n      0x04\n        /* \"#utility.yul\":4032:4047   */\n      mstore\n        /* \"#utility.yul\":4066:4070   */\n      0x24\n        /* \"#utility.yul\":4063:4064   */\n      0x00\n        /* \"#utility.yul\":4056:4071   */\n      revert\n        /* \"#utility.yul\":4083:4205   */\n    tag_42:\n        /* \"#utility.yul\":4156:4180   */\n      tag_85\n        /* \"#utility.yul\":4174:4179   */\n      dup2\n        /* \"#utility.yul\":4156:4180   */\n      tag_77\n      jump\t// in\n    tag_85:\n        /* \"#utility.yul\":4149:4154   */\n      dup2\n        /* \"#utility.yul\":4146:4181   */\n      eq\n        /* \"#utility.yul\":4136:4138   */\n      tag_86\n      jumpi\n        /* \"#utility.yul\":4195:4196   */\n      0x00\n        /* \"#utility.yul\":4192:4193   */\n      dup1\n        /* \"#utility.yul\":4185:4197   */\n      revert\n        /* \"#utility.yul\":4136:4138   */\n    tag_86:\n        /* \"#utility.yul\":4126:4205   */\n      pop\n      jump\t// out\n\n    auxdata: 0xa264697066735822122052bba9735abb32730987138dff8c11c1177c812934059df259a039799d061b8764736f6c63430008000033\n}\n",
				"bytecode": {
					"linkReferences": {},
					"object": "608060405261056c806100136000396000f3fe60806040526004361061003f5760003560e01c806327e235e314610044578063300180e9146100815780633ccfd60b146100ac578063d0e30db0146100c3575b600080fd5b34801561005057600080fd5b5061006b60048036038101906100669190610300565b6100cd565b6040516100789190610427565b60405180910390f35b34801561008d57600080fd5b506100966100e5565b6040516100a39190610427565b60405180910390f35b3480156100b857600080fd5b506100c16100ed565b005b6100cb610294565b005b60006020528060005260406000206000915090505481565b600047905090565b60001515600160009054906101000a900460ff16151514610143576040517f08c379a000000000000000000000000000000000000000000000000000000000815260040161013a90610407565b60405180910390fd5b60018060006101000a81548160ff02191690831515021790555060008060003373ffffffffffffffffffffffffffffffffffffffff1673ffffffffffffffffffffffffffffffffffffffff16815260200190815260200160002054905060008060003373ffffffffffffffffffffffffffffffffffffffff1673ffffffffffffffffffffffffffffffffffffffff1681526020019081526020016000208190555060003373ffffffffffffffffffffffffffffffffffffffff168260405161020a906103d2565b60006040518083038185875af1925050503d8060008114610247576040519150601f19603f3d011682016040523d82523d6000602084013e61024c565b606091505b5050905080610290576040517f08c379a0000000000000000000000000000000000000000000000000000000008152600401610287906103e7565b60405180910390fd5b5050565b346000803373ffffffffffffffffffffffffffffffffffffffff1673ffffffffffffffffffffffffffffffffffffffff16815260200190815260200160002060008282546102e2919061045e565b92505081905550565b6000813590506102fa8161051f565b92915050565b60006020828403121561031257600080fd5b6000610320848285016102eb565b91505092915050565b600061033660058361044d565b91507f4552524f520000000000000000000000000000000000000000000000000000006000830152602082019050919050565b6000610376600083610442565b9150600082019050919050565b600061039060138361044d565b91507f4552524f52203a206e6f7265656e7472616e74000000000000000000000000006000830152602082019050919050565b6103cc816104e6565b82525050565b60006103dd82610369565b9150819050919050565b6000602082019050818103600083015261040081610329565b9050919050565b6000602082019050818103600083015261042081610383565b9050919050565b600060208201905061043c60008301846103c3565b92915050565b600081905092915050565b600082825260208201905092915050565b6000610469826104e6565b9150610474836104e6565b9250827fffffffffffffffffffffffffffffffffffffffffffffffffffffffffffffffff038211156104a9576104a86104f0565b5b828201905092915050565b60006104bf826104c6565b9050919050565b600073ffffffffffffffffffffffffffffffffffffffff82169050919050565b6000819050919050565b7f4e487b7100000000000000000000000000000000000000000000000000000000600052601160045260246000fd5b610528816104b4565b811461053357600080fd5b5056fea264697066735822122052bba9735abb32730987138dff8c11c1177c812934059df259a039799d061b8764736f6c63430008000033",
					"opcodes": "PUSH1 0x80 PUSH1 0x40 MSTORE PUSH2 0x56C DUP1 PUSH2 0x13 PUSH1 0x0 CODECOPY PUSH1 0x0 RETURN INVALID PUSH1 0x80 PUSH1 0x40 MSTORE PUSH1 0x4 CALLDATASIZE LT PUSH2 0x3F JUMPI PUSH1 0x0 CALLDATALOAD PUSH1 0xE0 SHR DUP1 PUSH4 0x27E235E3 EQ PUSH2 0x44 JUMPI DUP1 PUSH4 0x300180E9 EQ PUSH2 0x81 JUMPI DUP1 PUSH4 0x3CCFD60B EQ PUSH2 0xAC JUMPI DUP1 PUSH4 0xD0E30DB0 EQ PUSH2 0xC3 JUMPI JUMPDEST PUSH1 0x0 DUP1 REVERT JUMPDEST CALLVALUE DUP1 ISZERO PUSH2 0x50 JUMPI PUSH1 0x0 DUP1 REVERT JUMPDEST POP PUSH2 0x6B PUSH1 0x4 DUP1 CALLDATASIZE SUB DUP2 ADD SWAP1 PUSH2 0x66 SWAP2 SWAP1 PUSH2 0x300 JUMP JUMPDEST PUSH2 0xCD JUMP JUMPDEST PUSH1 0x40 MLOAD PUSH2 0x78 SWAP2 SWAP1 PUSH2 0x427 JUMP JUMPDEST PUSH1 0x40 MLOAD DUP1 SWAP2 SUB SWAP1 RETURN JUMPDEST CALLVALUE DUP1 ISZERO PUSH2 0x8D JUMPI PUSH1 0x0 DUP1 REVERT JUMPDEST POP PUSH2 0x96 PUSH2 0xE5 JUMP JUMPDEST PUSH1 0x40 MLOAD PUSH2 0xA3 SWAP2 SWAP1 PUSH2 0x427 JUMP JUMPDEST PUSH1 0x40 MLOAD DUP1 SWAP2 SUB SWAP1 RETURN JUMPDEST CALLVALUE DUP1 ISZERO PUSH2 0xB8 JUMPI PUSH1 0x0 DUP1 REVERT JUMPDEST POP PUSH2 0xC1 PUSH2 0xED JUMP JUMPDEST STOP JUMPDEST PUSH2 0xCB PUSH2 0x294 JUMP JUMPDEST STOP JUMPDEST PUSH1 0x0 PUSH1 0x20 MSTORE DUP1 PUSH1 0x0 MSTORE PUSH1 0x40 PUSH1 0x0 KECCAK256 PUSH1 0x0 SWAP2 POP SWAP1 POP SLOAD DUP2 JUMP JUMPDEST PUSH1 0x0 SELFBALANCE SWAP1 POP SWAP1 JUMP JUMPDEST PUSH1 0x0 ISZERO ISZERO PUSH1 0x1 PUSH1 0x0 SWAP1 SLOAD SWAP1 PUSH2 0x100 EXP SWAP1 DIV PUSH1 0xFF AND ISZERO ISZERO EQ PUSH2 0x143 JUMPI PUSH1 0x40 MLOAD PUSH32 0x8C379A000000000000000000000000000000000000000000000000000000000 DUP2 MSTORE PUSH1 0x4 ADD PUSH2 0x13A SWAP1 PUSH2 0x407 JUMP JUMPDEST PUSH1 0x40 MLOAD DUP1 SWAP2 SUB SWAP1 REVERT JUMPDEST PUSH1 0x1 DUP1 PUSH1 0x0 PUSH2 0x100 EXP DUP2 SLOAD DUP2 PUSH1 0xFF MUL NOT AND SWAP1 DUP4 ISZERO ISZERO MUL OR SWAP1 SSTORE POP PUSH1 0x0 DUP1 PUSH1 0x0 CALLER PUSH20 0xFFFFFFFFFFFFFFFFFFFFFFFFFFFFFFFFFFFFFFFF AND PUSH20 0xFFFFFFFFFFFFFFFFFFFFFFFFFFFFFFFFFFFFFFFF AND DUP2 MSTORE PUSH1 0x20 ADD SWAP1 DUP2 MSTORE PUSH1 0x20 ADD PUSH1 0x0 KECCAK256 SLOAD SWAP1 POP PUSH1 0x0 DUP1 PUSH1 0x0 CALLER PUSH20 0xFFFFFFFFFFFFFFFFFFFFFFFFFFFFFFFFFFFFFFFF AND PUSH20 0xFFFFFFFFFFFFFFFFFFFFFFFFFFFFFFFFFFFFFFFF AND DUP2 MSTORE PUSH1 0x20 ADD SWAP1 DUP2 MSTORE PUSH1 0x20 ADD PUSH1 0x0 KECCAK256 DUP2 SWAP1 SSTORE POP PUSH1 0x0 CALLER PUSH20 0xFFFFFFFFFFFFFFFFFFFFFFFFFFFFFFFFFFFFFFFF AND DUP3 PUSH1 0x40 MLOAD PUSH2 0x20A SWAP1 PUSH2 0x3D2 JUMP JUMPDEST PUSH1 0x0 PUSH1 0x40 MLOAD DUP1 DUP4 SUB DUP2 DUP6 DUP8 GAS CALL SWAP3 POP POP POP RETURNDATASIZE DUP1 PUSH1 0x0 DUP2 EQ PUSH2 0x247 JUMPI PUSH1 0x40 MLOAD SWAP2 POP PUSH1 0x1F NOT PUSH1 0x3F RETURNDATASIZE ADD AND DUP3 ADD PUSH1 0x40 MSTORE RETURNDATASIZE DUP3 MSTORE RETURNDATASIZE PUSH1 0x0 PUSH1 0x20 DUP5 ADD RETURNDATACOPY PUSH2 0x24C JUMP JUMPDEST PUSH1 0x60 SWAP2 POP JUMPDEST POP POP SWAP1 POP DUP1 PUSH2 0x290 JUMPI PUSH1 0x40 MLOAD PUSH32 0x8C379A000000000000000000000000000000000000000000000000000000000 DUP2 MSTORE PUSH1 0x4 ADD PUSH2 0x287 SWAP1 PUSH2 0x3E7 JUMP JUMPDEST PUSH1 0x40 MLOAD DUP1 SWAP2 SUB SWAP1 REVERT JUMPDEST POP POP JUMP JUMPDEST CALLVALUE PUSH1 0x0 DUP1 CALLER PUSH20 0xFFFFFFFFFFFFFFFFFFFFFFFFFFFFFFFFFFFFFFFF AND PUSH20 0xFFFFFFFFFFFFFFFFFFFFFFFFFFFFFFFFFFFFFFFF AND DUP2 MSTORE PUSH1 0x20 ADD SWAP1 DUP2 MSTORE PUSH1 0x20 ADD PUSH1 0x0 KECCAK256 PUSH1 0x0 DUP3 DUP3 SLOAD PUSH2 0x2E2 SWAP2 SWAP1 PUSH2 0x45E JUMP JUMPDEST SWAP3 POP POP DUP2 SWAP1 SSTORE POP JUMP JUMPDEST PUSH1 0x0 DUP2 CALLDATALOAD SWAP1 POP PUSH2 0x2FA DUP2 PUSH2 0x51F JUMP JUMPDEST SWAP3 SWAP2 POP POP JUMP JUMPDEST PUSH1 0x0 PUSH1 0x20 DUP3 DUP5 SUB SLT ISZERO PUSH2 0x312 JUMPI PUSH1 0x0 DUP1 REVERT JUMPDEST PUSH1 0x0 PUSH2 0x320 DUP5 DUP3 DUP6 ADD PUSH2 0x2EB JUMP JUMPDEST SWAP2 POP POP SWAP3 SWAP2 POP POP JUMP JUMPDEST PUSH1 0x0 PUSH2 0x336 PUSH1 0x5 DUP4 PUSH2 0x44D JUMP JUMPDEST SWAP2 POP PUSH32 0x4552524F52000000000000000000000000000000000000000000000000000000 PUSH1 0x0 DUP4 ADD MSTORE PUSH1 0x20 DUP3 ADD SWAP1 POP SWAP2 SWAP1 POP JUMP JUMPDEST PUSH1 0x0 PUSH2 0x376 PUSH1 0x0 DUP4 PUSH2 0x442 JUMP JUMPDEST SWAP2 POP PUSH1 0x0 DUP3 ADD SWAP1 POP SWAP2 SWAP1 POP JUMP JUMPDEST PUSH1 0x0 PUSH2 0x390 PUSH1 0x13 DUP4 PUSH2 0x44D JUMP JUMPDEST SWAP2 POP PUSH32 0x4552524F52203A206E6F7265656E7472616E7400000000000000000000000000 PUSH1 0x0 DUP4 ADD MSTORE PUSH1 0x20 DUP3 ADD SWAP1 POP SWAP2 SWAP1 POP JUMP JUMPDEST PUSH2 0x3CC DUP2 PUSH2 0x4E6 JUMP JUMPDEST DUP3 MSTORE POP POP JUMP JUMPDEST PUSH1 0x0 PUSH2 0x3DD DUP3 PUSH2 0x369 JUMP JUMPDEST SWAP2 POP DUP2 SWAP1 POP SWAP2 SWAP1 POP JUMP JUMPDEST PUSH1 0x0 PUSH1 0x20 DUP3 ADD SWAP1 POP DUP2 DUP2 SUB PUSH1 0x0 DUP4 ADD MSTORE PUSH2 0x400 DUP2 PUSH2 0x329 JUMP JUMPDEST SWAP1 POP SWAP2 SWAP1 POP JUMP JUMPDEST PUSH1 0x0 PUSH1 0x20 DUP3 ADD SWAP1 POP DUP2 DUP2 SUB PUSH1 0x0 DUP4 ADD MSTORE PUSH2 0x420 DUP2 PUSH2 0x383 JUMP JUMPDEST SWAP1 POP SWAP2 SWAP1 POP JUMP JUMPDEST PUSH1 0x0 PUSH1 0x20 DUP3 ADD SWAP1 POP PUSH2 0x43C PUSH1 0x0 DUP4 ADD DUP5 PUSH2 0x3C3 JUMP JUMPDEST SWAP3 SWAP2 POP POP JUMP JUMPDEST PUSH1 0x0 DUP2 SWAP1 POP SWAP3 SWAP2 POP POP JUMP JUMPDEST PUSH1 0x0 DUP3 DUP3 MSTORE PUSH1 0x20 DUP3 ADD SWAP1 POP SWAP3 SWAP2 POP POP JUMP JUMPDEST PUSH1 0x0 PUSH2 0x469 DUP3 PUSH2 0x4E6 JUMP JUMPDEST SWAP2 POP PUSH2 0x474 DUP4 PUSH2 0x4E6 JUMP JUMPDEST SWAP3 POP DUP3 PUSH32 0xFFFFFFFFFFFFFFFFFFFFFFFFFFFFFFFFFFFFFFFFFFFFFFFFFFFFFFFFFFFFFFFF SUB DUP3 GT ISZERO PUSH2 0x4A9 JUMPI PUSH2 0x4A8 PUSH2 0x4F0 JUMP JUMPDEST JUMPDEST DUP3 DUP3 ADD SWAP1 POP SWAP3 SWAP2 POP POP JUMP JUMPDEST PUSH1 0x0 PUSH2 0x4BF DUP3 PUSH2 0x4C6 JUMP JUMPDEST SWAP1 POP SWAP2 SWAP1 POP JUMP JUMPDEST PUSH1 0x0 PUSH20 0xFFFFFFFFFFFFFFFFFFFFFFFFFFFFFFFFFFFFFFFF DUP3 AND SWAP1 POP SWAP2 SWAP1 POP JUMP JUMPDEST PUSH1 0x0 DUP2 SWAP1 POP SWAP2 SWAP1 POP JUMP JUMPDEST PUSH32 0x4E487B7100000000000000000000000000000000000000000000000000000000 PUSH1 0x0 MSTORE PUSH1 0x11 PUSH1 0x4 MSTORE PUSH1 0x24 PUSH1 0x0 REVERT JUMPDEST PUSH2 0x528 DUP2 PUSH2 0x4B4 JUMP JUMPDEST DUP2 EQ PUSH2 0x533 JUMPI PUSH1 0x0 DUP1 REVERT JUMPDEST POP JUMP INVALID LOG2 PUSH5 0x6970667358 0x22 SLT KECCAK256 MSTORE 0xBB 0xA9 PUSH20 0x5ABB32730987138DFF8C11C1177C812934059DF2 MSIZE LOG0 CODECOPY PUSH26 0x9D061B8764736F6C634300080000330000000000000000000000 "
				},
				"gasEstimates": {
					"creation": {
						"codeDepositCost": "277600",
						"executionCost": "294",
						"totalCost": "277894"
					},
					"external": {
						"balances(address)": "1492",
						"chekcBalance()": "339",
						"deposit()": "infinite",
						"withdraw()": "infinite"
					}
				},
				"methodIdentifiers": {
					"balances(address)": "27e235e3",
					"chekcBalance()": "300180e9",
					"deposit()": "d0e30db0",
					"withdraw()": "3ccfd60b"
				}
			},
			"storageLayout": {
				"storage": [
					{
						"astId": 5,
						"contract": "contracts/reentrancyAttack_solution2.sol:Bank",
						"label": "balances",
						"offset": 0,
						"slot": "0",
						"type": "t_mapping(t_address,t_uint256)"
					},
					{
						"astId": 7,
						"contract": "contracts/reentrancyAttack_solution2.sol:Bank",
						"label": "isEntering",
						"offset": 0,
						"slot": "1",
						"type": "t_bool"
					}
				],
				"types": {
					"t_address": {
						"encoding": "inplace",
						"label": "address",
						"numberOfBytes": "20"
					},
					"t_bool": {
						"encoding": "inplace",
						"label": "bool",
						"numberOfBytes": "1"
					},
					"t_mapping(t_address,t_uint256)": {
						"encoding": "mapping",
						"key": "t_address",
						"label": "mapping(address => uint256)",
						"numberOfBytes": "32",
						"value": "t_uint256"
					},
					"t_uint256": {
						"encoding": "inplace",
						"label": "uint256",
						"numberOfBytes": "32"
					}
				}
			},
			"userdoc": {
				"kind": "user",
				"methods": {},
				"version": 1
			}
		}
	}
}