{
	"contracts/reentrancyAttack_solution2-1.sol": {
		"Bank": {
			"abi": [
				{
					"inputs": [],
					"stateMutability": "payable",
					"type": "constructor"
				},
				{
					"inputs": [
						{
							"internalType": "address",
							"name": "",
							"type": "address"
						}
					],
					"name": "balances",
					"outputs": [
						{
							"internalType": "uint256",
							"name": "",
							"type": "uint256"
						}
					],
					"stateMutability": "view",
					"type": "function"
				},
				{
					"inputs": [],
					"name": "chekcBalance",
					"outputs": [
						{
							"internalType": "uint256",
							"name": "",
							"type": "uint256"
						}
					],
					"stateMutability": "view",
					"type": "function"
				},
				{
					"inputs": [],
					"name": "deposit",
					"outputs": [],
					"stateMutability": "payable",
					"type": "function"
				},
				{
					"inputs": [],
					"name": "withdraw",
					"outputs": [],
					"stateMutability": "nonpayable",
					"type": "function"
				}
			],
			"devdoc": {
				"kind": "dev",
				"methods": {},
				"version": 1
			},
			"evm": {
				"assembly": "    /* \"contracts/reentrancyAttack_solution2-1.sol\":61:922  contract Bank {... */\n  mstore(0x40, 0x80)\n  dataSize(sub_0)\n  dup1\n  dataOffset(sub_0)\n  0x00\n  codecopy\n  0x00\n  return\nstop\n\nsub_0: assembly {\n        /* \"contracts/reentrancyAttack_solution2-1.sol\":61:922  contract Bank {... */\n      mstore(0x40, 0x80)\n      jumpi(tag_1, lt(calldatasize, 0x04))\n      shr(0xe0, calldataload(0x00))\n      dup1\n      0x27e235e3\n      eq\n      tag_2\n      jumpi\n      dup1\n      0x300180e9\n      eq\n      tag_3\n      jumpi\n      dup1\n      0x3ccfd60b\n      eq\n      tag_4\n      jumpi\n      dup1\n      0xd0e30db0\n      eq\n      tag_5\n      jumpi\n    tag_1:\n      0x00\n      dup1\n      revert\n        /* \"contracts/reentrancyAttack_solution2-1.sol\":86:126  mapping(address => uint) public balances */\n    tag_2:\n      callvalue\n      dup1\n      iszero\n      tag_6\n      jumpi\n      0x00\n      dup1\n      revert\n    tag_6:\n      pop\n      tag_7\n      0x04\n      dup1\n      calldatasize\n      sub\n      dup2\n      add\n      swap1\n      tag_8\n      swap2\n      swap1\n      tag_9\n      jump\t// in\n    tag_8:\n      tag_10\n      jump\t// in\n    tag_7:\n      mload(0x40)\n      tag_11\n      swap2\n      swap1\n      tag_12\n      jump\t// in\n    tag_11:\n      mload(0x40)\n      dup1\n      swap2\n      sub\n      swap1\n      return\n        /* \"contracts/reentrancyAttack_solution2-1.sol\":603:700  function chekcBalance() external view returns(uint) {... */\n    tag_3:\n      callvalue\n      dup1\n      iszero\n      tag_13\n      jumpi\n      0x00\n      dup1\n      revert\n    tag_13:\n      pop\n      tag_14\n      tag_15\n      jump\t// in\n    tag_14:\n      mload(0x40)\n      tag_16\n      swap2\n      swap1\n      tag_12\n      jump\t// in\n    tag_16:\n      mload(0x40)\n      dup1\n      swap2\n      sub\n      swap1\n      return\n        /* \"contracts/reentrancyAttack_solution2-1.sol\":351:593  function withdraw() external nonReentrant() {... */\n    tag_4:\n      callvalue\n      dup1\n      iszero\n      tag_17\n      jumpi\n      0x00\n      dup1\n      revert\n    tag_17:\n      pop\n      tag_18\n      tag_19\n      jump\t// in\n    tag_18:\n      stop\n        /* \"contracts/reentrancyAttack_solution2-1.sol\":259:345  function deposit() external payable {... */\n    tag_5:\n      tag_20\n      tag_21\n      jump\t// in\n    tag_20:\n      stop\n        /* \"contracts/reentrancyAttack_solution2-1.sol\":86:126  mapping(address => uint) public balances */\n    tag_10:\n      mstore(0x20, 0x00)\n      dup1\n      0x00\n      mstore\n      keccak256(0x00, 0x40)\n      0x00\n      swap2\n      pop\n      swap1\n      pop\n      sload\n      dup2\n      jump\t// out\n        /* \"contracts/reentrancyAttack_solution2-1.sol\":603:700  function chekcBalance() external view returns(uint) {... */\n    tag_15:\n        /* \"contracts/reentrancyAttack_solution2-1.sol\":649:653  uint */\n      0x00\n        /* \"contracts/reentrancyAttack_solution2-1.sol\":672:693  address(this).balance */\n      selfbalance\n        /* \"contracts/reentrancyAttack_solution2-1.sol\":665:693  return address(this).balance */\n      swap1\n      pop\n        /* \"contracts/reentrancyAttack_solution2-1.sol\":603:700  function chekcBalance() external view returns(uint) {... */\n      swap1\n      jump\t// out\n        /* \"contracts/reentrancyAttack_solution2-1.sol\":351:593  function withdraw() external nonReentrant() {... */\n    tag_19:\n        /* \"contracts/reentrancyAttack_solution2-1.sol\":753:763  isEntering */\n      0x01\n      0x00\n      swap1\n      sload\n      swap1\n      0x0100\n      exp\n      swap1\n      div\n      0xff\n      and\n        /* \"contracts/reentrancyAttack_solution2-1.sol\":752:763  !isEntering */\n      iszero\n        /* \"contracts/reentrancyAttack_solution2-1.sol\":744:788  require(!isEntering, \"ERROR : nonReentrant\") */\n      tag_24\n      jumpi\n      mload(0x40)\n      0x08c379a000000000000000000000000000000000000000000000000000000000\n      dup2\n      mstore\n      0x04\n      add\n      tag_25\n      swap1\n      tag_26\n      jump\t// in\n    tag_25:\n      mload(0x40)\n      dup1\n      swap2\n      sub\n      swap1\n      revert\n    tag_24:\n        /* \"contracts/reentrancyAttack_solution2-1.sol\":811:815  true */\n      0x01\n        /* \"contracts/reentrancyAttack_solution2-1.sol\":798:808  isEntering */\n      dup1\n      0x00\n        /* \"contracts/reentrancyAttack_solution2-1.sol\":798:815  isEntering = true */\n      0x0100\n      exp\n      dup2\n      sload\n      dup2\n      0xff\n      mul\n      not\n      and\n      swap1\n      dup4\n      iszero\n      iszero\n      mul\n      or\n      swap1\n      sstore\n      pop\n        /* \"contracts/reentrancyAttack_solution2-1.sol\":405:424  uint currentBalance */\n      0x00\n        /* \"contracts/reentrancyAttack_solution2-1.sol\":427:435  balances */\n      dup1\n        /* \"contracts/reentrancyAttack_solution2-1.sol\":427:447  balances[msg.sender] */\n      0x00\n        /* \"contracts/reentrancyAttack_solution2-1.sol\":436:446  msg.sender */\n      caller\n        /* \"contracts/reentrancyAttack_solution2-1.sol\":427:447  balances[msg.sender] */\n      0xffffffffffffffffffffffffffffffffffffffff\n      and\n      0xffffffffffffffffffffffffffffffffffffffff\n      and\n      dup2\n      mstore\n      0x20\n      add\n      swap1\n      dup2\n      mstore\n      0x20\n      add\n      0x00\n      keccak256\n      sload\n        /* \"contracts/reentrancyAttack_solution2-1.sol\":405:447  uint currentBalance = balances[msg.sender] */\n      swap1\n      pop\n        /* \"contracts/reentrancyAttack_solution2-1.sol\":481:482  0 */\n      0x00\n        /* \"contracts/reentrancyAttack_solution2-1.sol\":458:466  balances */\n      dup1\n        /* \"contracts/reentrancyAttack_solution2-1.sol\":458:478  balances[msg.sender] */\n      0x00\n        /* \"contracts/reentrancyAttack_solution2-1.sol\":467:477  msg.sender */\n      caller\n        /* \"contracts/reentrancyAttack_solution2-1.sol\":458:478  balances[msg.sender] */\n      0xffffffffffffffffffffffffffffffffffffffff\n      and\n      0xffffffffffffffffffffffffffffffffffffffff\n      and\n      dup2\n      mstore\n      0x20\n      add\n      swap1\n      dup2\n      mstore\n      0x20\n      add\n      0x00\n      keccak256\n        /* \"contracts/reentrancyAttack_solution2-1.sol\":458:482  balances[msg.sender] = 0 */\n      dup2\n      swap1\n      sstore\n      pop\n        /* \"contracts/reentrancyAttack_solution2-1.sol\":495:506  bool result */\n      0x00\n        /* \"contracts/reentrancyAttack_solution2-1.sol\":511:521  msg.sender */\n      caller\n        /* \"contracts/reentrancyAttack_solution2-1.sol\":511:526  msg.sender.call */\n      0xffffffffffffffffffffffffffffffffffffffff\n      and\n        /* \"contracts/reentrancyAttack_solution2-1.sol\":533:547  currentBalance */\n      dup3\n        /* \"contracts/reentrancyAttack_solution2-1.sol\":511:552  msg.sender.call{value:currentBalance}(\"\") */\n      mload(0x40)\n      tag_28\n      swap1\n      tag_29\n      jump\t// in\n    tag_28:\n      0x00\n      mload(0x40)\n      dup1\n      dup4\n      sub\n      dup2\n      dup6\n      dup8\n      gas\n      call\n      swap3\n      pop\n      pop\n      pop\n      returndatasize\n      dup1\n      0x00\n      dup2\n      eq\n      tag_32\n      jumpi\n      mload(0x40)\n      swap2\n      pop\n      and(add(returndatasize, 0x3f), not(0x1f))\n      dup3\n      add\n      0x40\n      mstore\n      returndatasize\n      dup3\n      mstore\n      returndatasize\n      0x00\n      0x20\n      dup5\n      add\n      returndatacopy\n      jump(tag_31)\n    tag_32:\n      0x60\n      swap2\n      pop\n    tag_31:\n      pop\n        /* \"contracts/reentrancyAttack_solution2-1.sol\":494:552  (bool result,) = msg.sender.call{value:currentBalance}(\"\") */\n      pop\n      swap1\n      pop\n        /* \"contracts/reentrancyAttack_solution2-1.sol\":570:576  result */\n      dup1\n        /* \"contracts/reentrancyAttack_solution2-1.sol\":562:586  require(result, \"ERROR\") */\n      tag_33\n      jumpi\n      mload(0x40)\n      0x08c379a000000000000000000000000000000000000000000000000000000000\n      dup2\n      mstore\n      0x04\n      add\n      tag_34\n      swap1\n      tag_35\n      jump\t// in\n    tag_34:\n      mload(0x40)\n      dup1\n      swap2\n      sub\n      swap1\n      revert\n    tag_33:\n        /* \"contracts/reentrancyAttack_solution2-1.sol\":884:885  _ */\n      pop\n      pop\n        /* \"contracts/reentrancyAttack_solution2-1.sol\":908:913  false */\n      0x00\n        /* \"contracts/reentrancyAttack_solution2-1.sol\":895:905  isEntering */\n      0x01\n      0x00\n        /* \"contracts/reentrancyAttack_solution2-1.sol\":895:913  isEntering = false */\n      0x0100\n      exp\n      dup2\n      sload\n      dup2\n      0xff\n      mul\n      not\n      and\n      swap1\n      dup4\n      iszero\n      iszero\n      mul\n      or\n      swap1\n      sstore\n      pop\n        /* \"contracts/reentrancyAttack_solution2-1.sol\":351:593  function withdraw() external nonReentrant() {... */\n      jump\t// out\n        /* \"contracts/reentrancyAttack_solution2-1.sol\":259:345  function deposit() external payable {... */\n    tag_21:\n        /* \"contracts/reentrancyAttack_solution2-1.sol\":329:338  msg.value */\n      callvalue\n        /* \"contracts/reentrancyAttack_solution2-1.sol\":305:313  balances */\n      0x00\n        /* \"contracts/reentrancyAttack_solution2-1.sol\":305:325  balances[msg.sender] */\n      dup1\n        /* \"contracts/reentrancyAttack_solution2-1.sol\":314:324  msg.sender */\n      caller\n        /* \"contracts/reentrancyAttack_solution2-1.sol\":305:325  balances[msg.sender] */\n      0xffffffffffffffffffffffffffffffffffffffff\n      and\n      0xffffffffffffffffffffffffffffffffffffffff\n      and\n      dup2\n      mstore\n      0x20\n      add\n      swap1\n      dup2\n      mstore\n      0x20\n      add\n      0x00\n      keccak256\n      0x00\n        /* \"contracts/reentrancyAttack_solution2-1.sol\":305:338  balances[msg.sender] += msg.value */\n      dup3\n      dup3\n      sload\n      tag_37\n      swap2\n      swap1\n      tag_38\n      jump\t// in\n    tag_37:\n      swap3\n      pop\n      pop\n      dup2\n      swap1\n      sstore\n      pop\n        /* \"contracts/reentrancyAttack_solution2-1.sol\":259:345  function deposit() external payable {... */\n      jump\t// out\n        /* \"#utility.yul\":7:146   */\n    tag_40:\n      0x00\n        /* \"#utility.yul\":91:97   */\n      dup2\n        /* \"#utility.yul\":78:98   */\n      calldataload\n        /* \"#utility.yul\":69:98   */\n      swap1\n      pop\n        /* \"#utility.yul\":107:140   */\n      tag_42\n        /* \"#utility.yul\":134:139   */\n      dup2\n        /* \"#utility.yul\":107:140   */\n      tag_43\n      jump\t// in\n    tag_42:\n        /* \"#utility.yul\":59:146   */\n      swap3\n      swap2\n      pop\n      pop\n      jump\t// out\n        /* \"#utility.yul\":152:414   */\n    tag_9:\n      0x00\n        /* \"#utility.yul\":260:262   */\n      0x20\n        /* \"#utility.yul\":248:257   */\n      dup3\n        /* \"#utility.yul\":239:246   */\n      dup5\n        /* \"#utility.yul\":235:258   */\n      sub\n        /* \"#utility.yul\":231:263   */\n      slt\n        /* \"#utility.yul\":228:230   */\n      iszero\n      tag_45\n      jumpi\n        /* \"#utility.yul\":276:277   */\n      0x00\n        /* \"#utility.yul\":273:274   */\n      dup1\n        /* \"#utility.yul\":266:278   */\n      revert\n        /* \"#utility.yul\":228:230   */\n    tag_45:\n        /* \"#utility.yul\":319:320   */\n      0x00\n        /* \"#utility.yul\":344:397   */\n      tag_46\n        /* \"#utility.yul\":389:396   */\n      dup5\n        /* \"#utility.yul\":380:386   */\n      dup3\n        /* \"#utility.yul\":369:378   */\n      dup6\n        /* \"#utility.yul\":365:387   */\n      add\n        /* \"#utility.yul\":344:397   */\n      tag_40\n      jump\t// in\n    tag_46:\n        /* \"#utility.yul\":334:397   */\n      swap2\n      pop\n        /* \"#utility.yul\":290:407   */\n      pop\n        /* \"#utility.yul\":218:414   */\n      swap3\n      swap2\n      pop\n      pop\n      jump\t// out\n        /* \"#utility.yul\":420:738   */\n    tag_47:\n      0x00\n        /* \"#utility.yul\":583:650   */\n      tag_49\n        /* \"#utility.yul\":647:649   */\n      0x14\n        /* \"#utility.yul\":642:645   */\n      dup4\n        /* \"#utility.yul\":583:650   */\n      tag_50\n      jump\t// in\n    tag_49:\n        /* \"#utility.yul\":576:650   */\n      swap2\n      pop\n        /* \"#utility.yul\":680:702   */\n      0x4552524f52203a206e6f6e5265656e7472616e74000000000000000000000000\n        /* \"#utility.yul\":676:677   */\n      0x00\n        /* \"#utility.yul\":671:674   */\n      dup4\n        /* \"#utility.yul\":667:678   */\n      add\n        /* \"#utility.yul\":660:703   */\n      mstore\n        /* \"#utility.yul\":729:731   */\n      0x20\n        /* \"#utility.yul\":724:727   */\n      dup3\n        /* \"#utility.yul\":720:732   */\n      add\n        /* \"#utility.yul\":713:732   */\n      swap1\n      pop\n        /* \"#utility.yul\":566:738   */\n      swap2\n      swap1\n      pop\n      jump\t// out\n        /* \"#utility.yul\":744:1046   */\n    tag_51:\n      0x00\n        /* \"#utility.yul\":907:973   */\n      tag_53\n        /* \"#utility.yul\":971:972   */\n      0x05\n        /* \"#utility.yul\":966:969   */\n      dup4\n        /* \"#utility.yul\":907:973   */\n      tag_50\n      jump\t// in\n    tag_53:\n        /* \"#utility.yul\":900:973   */\n      swap2\n      pop\n        /* \"#utility.yul\":1003:1010   */\n      0x4552524f52000000000000000000000000000000000000000000000000000000\n        /* \"#utility.yul\":999:1000   */\n      0x00\n        /* \"#utility.yul\":994:997   */\n      dup4\n        /* \"#utility.yul\":990:1001   */\n      add\n        /* \"#utility.yul\":983:1011   */\n      mstore\n        /* \"#utility.yul\":1037:1039   */\n      0x20\n        /* \"#utility.yul\":1032:1035   */\n      dup3\n        /* \"#utility.yul\":1028:1040   */\n      add\n        /* \"#utility.yul\":1021:1040   */\n      swap1\n      pop\n        /* \"#utility.yul\":890:1046   */\n      swap2\n      swap1\n      pop\n      jump\t// out\n        /* \"#utility.yul\":1052:1349   */\n    tag_54:\n      0x00\n        /* \"#utility.yul\":1232:1315   */\n      tag_56\n        /* \"#utility.yul\":1313:1314   */\n      0x00\n        /* \"#utility.yul\":1308:1311   */\n      dup4\n        /* \"#utility.yul\":1232:1315   */\n      tag_57\n      jump\t// in\n    tag_56:\n        /* \"#utility.yul\":1225:1315   */\n      swap2\n      pop\n        /* \"#utility.yul\":1341:1342   */\n      0x00\n        /* \"#utility.yul\":1336:1339   */\n      dup3\n        /* \"#utility.yul\":1332:1343   */\n      add\n        /* \"#utility.yul\":1325:1343   */\n      swap1\n      pop\n        /* \"#utility.yul\":1215:1349   */\n      swap2\n      swap1\n      pop\n      jump\t// out\n        /* \"#utility.yul\":1355:1473   */\n    tag_58:\n        /* \"#utility.yul\":1442:1466   */\n      tag_60\n        /* \"#utility.yul\":1460:1465   */\n      dup2\n        /* \"#utility.yul\":1442:1466   */\n      tag_61\n      jump\t// in\n    tag_60:\n        /* \"#utility.yul\":1437:1440   */\n      dup3\n        /* \"#utility.yul\":1430:1467   */\n      mstore\n        /* \"#utility.yul\":1420:1473   */\n      pop\n      pop\n      jump\t// out\n        /* \"#utility.yul\":1479:1858   */\n    tag_29:\n      0x00\n        /* \"#utility.yul\":1685:1832   */\n      tag_63\n        /* \"#utility.yul\":1828:1831   */\n      dup3\n        /* \"#utility.yul\":1685:1832   */\n      tag_54\n      jump\t// in\n    tag_63:\n        /* \"#utility.yul\":1678:1832   */\n      swap2\n      pop\n        /* \"#utility.yul\":1849:1852   */\n      dup2\n        /* \"#utility.yul\":1842:1852   */\n      swap1\n      pop\n        /* \"#utility.yul\":1667:1858   */\n      swap2\n      swap1\n      pop\n      jump\t// out\n        /* \"#utility.yul\":1864:2283   */\n    tag_26:\n      0x00\n        /* \"#utility.yul\":2068:2070   */\n      0x20\n        /* \"#utility.yul\":2057:2066   */\n      dup3\n        /* \"#utility.yul\":2053:2071   */\n      add\n        /* \"#utility.yul\":2045:2071   */\n      swap1\n      pop\n        /* \"#utility.yul\":2117:2126   */\n      dup2\n        /* \"#utility.yul\":2111:2115   */\n      dup2\n        /* \"#utility.yul\":2107:2127   */\n      sub\n        /* \"#utility.yul\":2103:2104   */\n      0x00\n        /* \"#utility.yul\":2092:2101   */\n      dup4\n        /* \"#utility.yul\":2088:2105   */\n      add\n        /* \"#utility.yul\":2081:2128   */\n      mstore\n        /* \"#utility.yul\":2145:2276   */\n      tag_65\n        /* \"#utility.yul\":2271:2275   */\n      dup2\n        /* \"#utility.yul\":2145:2276   */\n      tag_47\n      jump\t// in\n    tag_65:\n        /* \"#utility.yul\":2137:2276   */\n      swap1\n      pop\n        /* \"#utility.yul\":2035:2283   */\n      swap2\n      swap1\n      pop\n      jump\t// out\n        /* \"#utility.yul\":2289:2708   */\n    tag_35:\n      0x00\n        /* \"#utility.yul\":2493:2495   */\n      0x20\n        /* \"#utility.yul\":2482:2491   */\n      dup3\n        /* \"#utility.yul\":2478:2496   */\n      add\n        /* \"#utility.yul\":2470:2496   */\n      swap1\n      pop\n        /* \"#utility.yul\":2542:2551   */\n      dup2\n        /* \"#utility.yul\":2536:2540   */\n      dup2\n        /* \"#utility.yul\":2532:2552   */\n      sub\n        /* \"#utility.yul\":2528:2529   */\n      0x00\n        /* \"#utility.yul\":2517:2526   */\n      dup4\n        /* \"#utility.yul\":2513:2530   */\n      add\n        /* \"#utility.yul\":2506:2553   */\n      mstore\n        /* \"#utility.yul\":2570:2701   */\n      tag_67\n        /* \"#utility.yul\":2696:2700   */\n      dup2\n        /* \"#utility.yul\":2570:2701   */\n      tag_51\n      jump\t// in\n    tag_67:\n        /* \"#utility.yul\":2562:2701   */\n      swap1\n      pop\n        /* \"#utility.yul\":2460:2708   */\n      swap2\n      swap1\n      pop\n      jump\t// out\n        /* \"#utility.yul\":2714:2936   */\n    tag_12:\n      0x00\n        /* \"#utility.yul\":2845:2847   */\n      0x20\n        /* \"#utility.yul\":2834:2843   */\n      dup3\n        /* \"#utility.yul\":2830:2848   */\n      add\n        /* \"#utility.yul\":2822:2848   */\n      swap1\n      pop\n        /* \"#utility.yul\":2858:2929   */\n      tag_69\n        /* \"#utility.yul\":2926:2927   */\n      0x00\n        /* \"#utility.yul\":2915:2924   */\n      dup4\n        /* \"#utility.yul\":2911:2928   */\n      add\n        /* \"#utility.yul\":2902:2908   */\n      dup5\n        /* \"#utility.yul\":2858:2929   */\n      tag_58\n      jump\t// in\n    tag_69:\n        /* \"#utility.yul\":2812:2936   */\n      swap3\n      swap2\n      pop\n      pop\n      jump\t// out\n        /* \"#utility.yul\":2942:3089   */\n    tag_57:\n      0x00\n        /* \"#utility.yul\":3080:3083   */\n      dup2\n        /* \"#utility.yul\":3065:3083   */\n      swap1\n      pop\n        /* \"#utility.yul\":3055:3089   */\n      swap3\n      swap2\n      pop\n      pop\n      jump\t// out\n        /* \"#utility.yul\":3095:3264   */\n    tag_50:\n      0x00\n        /* \"#utility.yul\":3213:3219   */\n      dup3\n        /* \"#utility.yul\":3208:3211   */\n      dup3\n        /* \"#utility.yul\":3201:3220   */\n      mstore\n        /* \"#utility.yul\":3253:3257   */\n      0x20\n        /* \"#utility.yul\":3248:3251   */\n      dup3\n        /* \"#utility.yul\":3244:3258   */\n      add\n        /* \"#utility.yul\":3229:3258   */\n      swap1\n      pop\n        /* \"#utility.yul\":3191:3264   */\n      swap3\n      swap2\n      pop\n      pop\n      jump\t// out\n        /* \"#utility.yul\":3270:3575   */\n    tag_38:\n      0x00\n        /* \"#utility.yul\":3329:3349   */\n      tag_73\n        /* \"#utility.yul\":3347:3348   */\n      dup3\n        /* \"#utility.yul\":3329:3349   */\n      tag_61\n      jump\t// in\n    tag_73:\n        /* \"#utility.yul\":3324:3349   */\n      swap2\n      pop\n        /* \"#utility.yul\":3363:3383   */\n      tag_74\n        /* \"#utility.yul\":3381:3382   */\n      dup4\n        /* \"#utility.yul\":3363:3383   */\n      tag_61\n      jump\t// in\n    tag_74:\n        /* \"#utility.yul\":3358:3383   */\n      swap3\n      pop\n        /* \"#utility.yul\":3517:3518   */\n      dup3\n        /* \"#utility.yul\":3449:3515   */\n      0xffffffffffffffffffffffffffffffffffffffffffffffffffffffffffffffff\n        /* \"#utility.yul\":3445:3519   */\n      sub\n        /* \"#utility.yul\":3442:3443   */\n      dup3\n        /* \"#utility.yul\":3439:3520   */\n      gt\n        /* \"#utility.yul\":3436:3438   */\n      iszero\n      tag_75\n      jumpi\n        /* \"#utility.yul\":3523:3541   */\n      tag_76\n      tag_77\n      jump\t// in\n    tag_76:\n        /* \"#utility.yul\":3436:3438   */\n    tag_75:\n        /* \"#utility.yul\":3567:3568   */\n      dup3\n        /* \"#utility.yul\":3564:3565   */\n      dup3\n        /* \"#utility.yul\":3560:3569   */\n      add\n        /* \"#utility.yul\":3553:3569   */\n      swap1\n      pop\n        /* \"#utility.yul\":3314:3575   */\n      swap3\n      swap2\n      pop\n      pop\n      jump\t// out\n        /* \"#utility.yul\":3581:3677   */\n    tag_78:\n      0x00\n        /* \"#utility.yul\":3647:3671   */\n      tag_80\n        /* \"#utility.yul\":3665:3670   */\n      dup3\n        /* \"#utility.yul\":3647:3671   */\n      tag_81\n      jump\t// in\n    tag_80:\n        /* \"#utility.yul\":3636:3671   */\n      swap1\n      pop\n        /* \"#utility.yul\":3626:3677   */\n      swap2\n      swap1\n      pop\n      jump\t// out\n        /* \"#utility.yul\":3683:3809   */\n    tag_81:\n      0x00\n        /* \"#utility.yul\":3760:3802   */\n      0xffffffffffffffffffffffffffffffffffffffff\n        /* \"#utility.yul\":3753:3758   */\n      dup3\n        /* \"#utility.yul\":3749:3803   */\n      and\n        /* \"#utility.yul\":3738:3803   */\n      swap1\n      pop\n        /* \"#utility.yul\":3728:3809   */\n      swap2\n      swap1\n      pop\n      jump\t// out\n        /* \"#utility.yul\":3815:3892   */\n    tag_61:\n      0x00\n        /* \"#utility.yul\":3881:3886   */\n      dup2\n        /* \"#utility.yul\":3870:3886   */\n      swap1\n      pop\n        /* \"#utility.yul\":3860:3892   */\n      swap2\n      swap1\n      pop\n      jump\t// out\n        /* \"#utility.yul\":3898:4078   */\n    tag_77:\n        /* \"#utility.yul\":3946:4023   */\n      0x4e487b7100000000000000000000000000000000000000000000000000000000\n        /* \"#utility.yul\":3943:3944   */\n      0x00\n        /* \"#utility.yul\":3936:4024   */\n      mstore\n        /* \"#utility.yul\":4043:4047   */\n      0x11\n        /* \"#utility.yul\":4040:4041   */\n      0x04\n        /* \"#utility.yul\":4033:4048   */\n      mstore\n        /* \"#utility.yul\":4067:4071   */\n      0x24\n        /* \"#utility.yul\":4064:4065   */\n      0x00\n        /* \"#utility.yul\":4057:4072   */\n      revert\n        /* \"#utility.yul\":4084:4206   */\n    tag_43:\n        /* \"#utility.yul\":4157:4181   */\n      tag_86\n        /* \"#utility.yul\":4175:4180   */\n      dup2\n        /* \"#utility.yul\":4157:4181   */\n      tag_78\n      jump\t// in\n    tag_86:\n        /* \"#utility.yul\":4150:4155   */\n      dup2\n        /* \"#utility.yul\":4147:4182   */\n      eq\n        /* \"#utility.yul\":4137:4139   */\n      tag_87\n      jumpi\n        /* \"#utility.yul\":4196:4197   */\n      0x00\n        /* \"#utility.yul\":4193:4194   */\n      dup1\n        /* \"#utility.yul\":4186:4198   */\n      revert\n        /* \"#utility.yul\":4137:4139   */\n    tag_87:\n        /* \"#utility.yul\":4127:4206   */\n      pop\n      jump\t// out\n\n    auxdata: 0xa26469706673582212201cbc6b12859e7b93d3001d5bb72f2312baecbfa89887cdc976e2a08737c0044064736f6c63430008000033\n}\n",
				"bytecode": {
					"linkReferences": {},
					"object": "6080604052610581806100136000396000f3fe60806040526004361061003f5760003560e01c806327e235e314610044578063300180e9146100815780633ccfd60b146100ac578063d0e30db0146100c3575b600080fd5b34801561005057600080fd5b5061006b60048036038101906100669190610315565b6100cd565b604051610078919061043c565b60405180910390f35b34801561008d57600080fd5b506100966100e5565b6040516100a3919061043c565b60405180910390f35b3480156100b857600080fd5b506100c16100ed565b005b6100cb6102a9565b005b60006020528060005260406000206000915090505481565b600047905090565b600160009054906101000a900460ff161561013d576040517f08c379a0000000000000000000000000000000000000000000000000000000008152600401610134906103fc565b60405180910390fd5b60018060006101000a81548160ff02191690831515021790555060008060003373ffffffffffffffffffffffffffffffffffffffff1673ffffffffffffffffffffffffffffffffffffffff16815260200190815260200160002054905060008060003373ffffffffffffffffffffffffffffffffffffffff1673ffffffffffffffffffffffffffffffffffffffff1681526020019081526020016000208190555060003373ffffffffffffffffffffffffffffffffffffffff1682604051610204906103e7565b60006040518083038185875af1925050503d8060008114610241576040519150601f19603f3d011682016040523d82523d6000602084013e610246565b606091505b505090508061028a576040517f08c379a00000000000000000000000000000000000000000000000000000000081526004016102819061041c565b60405180910390fd5b50506000600160006101000a81548160ff021916908315150217905550565b346000803373ffffffffffffffffffffffffffffffffffffffff1673ffffffffffffffffffffffffffffffffffffffff16815260200190815260200160002060008282546102f79190610473565b92505081905550565b60008135905061030f81610534565b92915050565b60006020828403121561032757600080fd5b600061033584828501610300565b91505092915050565b600061034b601483610462565b91507f4552524f52203a206e6f6e5265656e7472616e740000000000000000000000006000830152602082019050919050565b600061038b600583610462565b91507f4552524f520000000000000000000000000000000000000000000000000000006000830152602082019050919050565b60006103cb600083610457565b9150600082019050919050565b6103e1816104fb565b82525050565b60006103f2826103be565b9150819050919050565b600060208201905081810360008301526104158161033e565b9050919050565b600060208201905081810360008301526104358161037e565b9050919050565b600060208201905061045160008301846103d8565b92915050565b600081905092915050565b600082825260208201905092915050565b600061047e826104fb565b9150610489836104fb565b9250827fffffffffffffffffffffffffffffffffffffffffffffffffffffffffffffffff038211156104be576104bd610505565b5b828201905092915050565b60006104d4826104db565b9050919050565b600073ffffffffffffffffffffffffffffffffffffffff82169050919050565b6000819050919050565b7f4e487b7100000000000000000000000000000000000000000000000000000000600052601160045260246000fd5b61053d816104c9565b811461054857600080fd5b5056fea26469706673582212201cbc6b12859e7b93d3001d5bb72f2312baecbfa89887cdc976e2a08737c0044064736f6c63430008000033",
					"opcodes": "PUSH1 0x80 PUSH1 0x40 MSTORE PUSH2 0x581 DUP1 PUSH2 0x13 PUSH1 0x0 CODECOPY PUSH1 0x0 RETURN INVALID PUSH1 0x80 PUSH1 0x40 MSTORE PUSH1 0x4 CALLDATASIZE LT PUSH2 0x3F JUMPI PUSH1 0x0 CALLDATALOAD PUSH1 0xE0 SHR DUP1 PUSH4 0x27E235E3 EQ PUSH2 0x44 JUMPI DUP1 PUSH4 0x300180E9 EQ PUSH2 0x81 JUMPI DUP1 PUSH4 0x3CCFD60B EQ PUSH2 0xAC JUMPI DUP1 PUSH4 0xD0E30DB0 EQ PUSH2 0xC3 JUMPI JUMPDEST PUSH1 0x0 DUP1 REVERT JUMPDEST CALLVALUE DUP1 ISZERO PUSH2 0x50 JUMPI PUSH1 0x0 DUP1 REVERT JUMPDEST POP PUSH2 0x6B PUSH1 0x4 DUP1 CALLDATASIZE SUB DUP2 ADD SWAP1 PUSH2 0x66 SWAP2 SWAP1 PUSH2 0x315 JUMP JUMPDEST PUSH2 0xCD JUMP JUMPDEST PUSH1 0x40 MLOAD PUSH2 0x78 SWAP2 SWAP1 PUSH2 0x43C JUMP JUMPDEST PUSH1 0x40 MLOAD DUP1 SWAP2 SUB SWAP1 RETURN JUMPDEST CALLVALUE DUP1 ISZERO PUSH2 0x8D JUMPI PUSH1 0x0 DUP1 REVERT JUMPDEST POP PUSH2 0x96 PUSH2 0xE5 JUMP JUMPDEST PUSH1 0x40 MLOAD PUSH2 0xA3 SWAP2 SWAP1 PUSH2 0x43C JUMP JUMPDEST PUSH1 0x40 MLOAD DUP1 SWAP2 SUB SWAP1 RETURN JUMPDEST CALLVALUE DUP1 ISZERO PUSH2 0xB8 JUMPI PUSH1 0x0 DUP1 REVERT JUMPDEST POP PUSH2 0xC1 PUSH2 0xED JUMP JUMPDEST STOP JUMPDEST PUSH2 0xCB PUSH2 0x2A9 JUMP JUMPDEST STOP JUMPDEST PUSH1 0x0 PUSH1 0x20 MSTORE DUP1 PUSH1 0x0 MSTORE PUSH1 0x40 PUSH1 0x0 KECCAK256 PUSH1 0x0 SWAP2 POP SWAP1 POP SLOAD DUP2 JUMP JUMPDEST PUSH1 0x0 SELFBALANCE SWAP1 POP SWAP1 JUMP JUMPDEST PUSH1 0x1 PUSH1 0x0 SWAP1 SLOAD SWAP1 PUSH2 0x100 EXP SWAP1 DIV PUSH1 0xFF AND ISZERO PUSH2 0x13D JUMPI PUSH1 0x40 MLOAD PUSH32 0x8C379A000000000000000000000000000000000000000000000000000000000 DUP2 MSTORE PUSH1 0x4 ADD PUSH2 0x134 SWAP1 PUSH2 0x3FC JUMP JUMPDEST PUSH1 0x40 MLOAD DUP1 SWAP2 SUB SWAP1 REVERT JUMPDEST PUSH1 0x1 DUP1 PUSH1 0x0 PUSH2 0x100 EXP DUP2 SLOAD DUP2 PUSH1 0xFF MUL NOT AND SWAP1 DUP4 ISZERO ISZERO MUL OR SWAP1 SSTORE POP PUSH1 0x0 DUP1 PUSH1 0x0 CALLER PUSH20 0xFFFFFFFFFFFFFFFFFFFFFFFFFFFFFFFFFFFFFFFF AND PUSH20 0xFFFFFFFFFFFFFFFFFFFFFFFFFFFFFFFFFFFFFFFF AND DUP2 MSTORE PUSH1 0x20 ADD SWAP1 DUP2 MSTORE PUSH1 0x20 ADD PUSH1 0x0 KECCAK256 SLOAD SWAP1 POP PUSH1 0x0 DUP1 PUSH1 0x0 CALLER PUSH20 0xFFFFFFFFFFFFFFFFFFFFFFFFFFFFFFFFFFFFFFFF AND PUSH20 0xFFFFFFFFFFFFFFFFFFFFFFFFFFFFFFFFFFFFFFFF AND DUP2 MSTORE PUSH1 0x20 ADD SWAP1 DUP2 MSTORE PUSH1 0x20 ADD PUSH1 0x0 KECCAK256 DUP2 SWAP1 SSTORE POP PUSH1 0x0 CALLER PUSH20 0xFFFFFFFFFFFFFFFFFFFFFFFFFFFFFFFFFFFFFFFF AND DUP3 PUSH1 0x40 MLOAD PUSH2 0x204 SWAP1 PUSH2 0x3E7 JUMP JUMPDEST PUSH1 0x0 PUSH1 0x40 MLOAD DUP1 DUP4 SUB DUP2 DUP6 DUP8 GAS CALL SWAP3 POP POP POP RETURNDATASIZE DUP1 PUSH1 0x0 DUP2 EQ PUSH2 0x241 JUMPI PUSH1 0x40 MLOAD SWAP2 POP PUSH1 0x1F NOT PUSH1 0x3F RETURNDATASIZE ADD AND DUP3 ADD PUSH1 0x40 MSTORE RETURNDATASIZE DUP3 MSTORE RETURNDATASIZE PUSH1 0x0 PUSH1 0x20 DUP5 ADD RETURNDATACOPY PUSH2 0x246 JUMP JUMPDEST PUSH1 0x60 SWAP2 POP JUMPDEST POP POP SWAP1 POP DUP1 PUSH2 0x28A JUMPI PUSH1 0x40 MLOAD PUSH32 0x8C379A000000000000000000000000000000000000000000000000000000000 DUP2 MSTORE PUSH1 0x4 ADD PUSH2 0x281 SWAP1 PUSH2 0x41C JUMP JUMPDEST PUSH1 0x40 MLOAD DUP1 SWAP2 SUB SWAP1 REVERT JUMPDEST POP POP PUSH1 0x0 PUSH1 0x1 PUSH1 0x0 PUSH2 0x100 EXP DUP2 SLOAD DUP2 PUSH1 0xFF MUL NOT AND SWAP1 DUP4 ISZERO ISZERO MUL OR SWAP1 SSTORE POP JUMP JUMPDEST CALLVALUE PUSH1 0x0 DUP1 CALLER PUSH20 0xFFFFFFFFFFFFFFFFFFFFFFFFFFFFFFFFFFFFFFFF AND PUSH20 0xFFFFFFFFFFFFFFFFFFFFFFFFFFFFFFFFFFFFFFFF AND DUP2 MSTORE PUSH1 0x20 ADD SWAP1 DUP2 MSTORE PUSH1 0x20 ADD PUSH1 0x0 KECCAK256 PUSH1 0x0 DUP3 DUP3 SLOAD PUSH2 0x2F7 SWAP2 SWAP1 PUSH2 0x473 JUMP JUMPDEST SWAP3 POP POP DUP2 SWAP1 SSTORE POP JUMP JUMPDEST PUSH1 0x0 DUP2 CALLDATALOAD SWAP1 POP PUSH2 0x30F DUP2 PUSH2 0x534 JUMP JUMPDEST SWAP3 SWAP2 POP POP JUMP JUMPDEST PUSH1 0x0 PUSH1 0x20 DUP3 DUP5 SUB SLT ISZERO PUSH2 0x327 JUMPI PUSH1 0x0 DUP1 REVERT JUMPDEST PUSH1 0x0 PUSH2 0x335 DUP5 DUP3 DUP6 ADD PUSH2 0x300 JUMP JUMPDEST SWAP2 POP POP SWAP3 SWAP2 POP POP JUMP JUMPDEST PUSH1 0x0 PUSH2 0x34B PUSH1 0x14 DUP4 PUSH2 0x462 JUMP JUMPDEST SWAP2 POP PUSH32 0x4552524F52203A206E6F6E5265656E7472616E74000000000000000000000000 PUSH1 0x0 DUP4 ADD MSTORE PUSH1 0x20 DUP3 ADD SWAP1 POP SWAP2 SWAP1 POP JUMP JUMPDEST PUSH1 0x0 PUSH2 0x38B PUSH1 0x5 DUP4 PUSH2 0x462 JUMP JUMPDEST SWAP2 POP PUSH32 0x4552524F52000000000000000000000000000000000000000000000000000000 PUSH1 0x0 DUP4 ADD MSTORE PUSH1 0x20 DUP3 ADD SWAP1 POP SWAP2 SWAP1 POP JUMP JUMPDEST PUSH1 0x0 PUSH2 0x3CB PUSH1 0x0 DUP4 PUSH2 0x457 JUMP JUMPDEST SWAP2 POP PUSH1 0x0 DUP3 ADD SWAP1 POP SWAP2 SWAP1 POP JUMP JUMPDEST PUSH2 0x3E1 DUP2 PUSH2 0x4FB JUMP JUMPDEST DUP3 MSTORE POP POP JUMP JUMPDEST PUSH1 0x0 PUSH2 0x3F2 DUP3 PUSH2 0x3BE JUMP JUMPDEST SWAP2 POP DUP2 SWAP1 POP SWAP2 SWAP1 POP JUMP JUMPDEST PUSH1 0x0 PUSH1 0x20 DUP3 ADD SWAP1 POP DUP2 DUP2 SUB PUSH1 0x0 DUP4 ADD MSTORE PUSH2 0x415 DUP2 PUSH2 0x33E JUMP JUMPDEST SWAP1 POP SWAP2 SWAP1 POP JUMP JUMPDEST PUSH1 0x0 PUSH1 0x20 DUP3 ADD SWAP1 POP DUP2 DUP2 SUB PUSH1 0x0 DUP4 ADD MSTORE PUSH2 0x435 DUP2 PUSH2 0x37E JUMP JUMPDEST SWAP1 POP SWAP2 SWAP1 POP JUMP JUMPDEST PUSH1 0x0 PUSH1 0x20 DUP3 ADD SWAP1 POP PUSH2 0x451 PUSH1 0x0 DUP4 ADD DUP5 PUSH2 0x3D8 JUMP JUMPDEST SWAP3 SWAP2 POP POP JUMP JUMPDEST PUSH1 0x0 DUP2 SWAP1 POP SWAP3 SWAP2 POP POP JUMP JUMPDEST PUSH1 0x0 DUP3 DUP3 MSTORE PUSH1 0x20 DUP3 ADD SWAP1 POP SWAP3 SWAP2 POP POP JUMP JUMPDEST PUSH1 0x0 PUSH2 0x47E DUP3 PUSH2 0x4FB JUMP JUMPDEST SWAP2 POP PUSH2 0x489 DUP4 PUSH2 0x4FB JUMP JUMPDEST SWAP3 POP DUP3 PUSH32 0xFFFFFFFFFFFFFFFFFFFFFFFFFFFFFFFFFFFFFFFFFFFFFFFFFFFFFFFFFFFFFFFF SUB DUP3 GT ISZERO PUSH2 0x4BE JUMPI PUSH2 0x4BD PUSH2 0x505 JUMP JUMPDEST JUMPDEST DUP3 DUP3 ADD SWAP1 POP SWAP3 SWAP2 POP POP JUMP JUMPDEST PUSH1 0x0 PUSH2 0x4D4 DUP3 PUSH2 0x4DB JUMP JUMPDEST SWAP1 POP SWAP2 SWAP1 POP JUMP JUMPDEST PUSH1 0x0 PUSH20 0xFFFFFFFFFFFFFFFFFFFFFFFFFFFFFFFFFFFFFFFF DUP3 AND SWAP1 POP SWAP2 SWAP1 POP JUMP JUMPDEST PUSH1 0x0 DUP2 SWAP1 POP SWAP2 SWAP1 POP JUMP JUMPDEST PUSH32 0x4E487B7100000000000000000000000000000000000000000000000000000000 PUSH1 0x0 MSTORE PUSH1 0x11 PUSH1 0x4 MSTORE PUSH1 0x24 PUSH1 0x0 REVERT JUMPDEST PUSH2 0x53D DUP2 PUSH2 0x4C9 JUMP JUMPDEST DUP2 EQ PUSH2 0x548 JUMPI PUSH1 0x0 DUP1 REVERT JUMPDEST POP JUMP INVALID LOG2 PUSH5 0x6970667358 0x22 SLT KECCAK256 SHR 0xBC PUSH12 0x12859E7B93D3001D5BB72F23 SLT 0xBA 0xEC 0xBF 0xA8 SWAP9 DUP8 0xCD 0xC9 PUSH23 0xE2A08737C0044064736F6C634300080000330000000000 "
				},
				"gasEstimates": {
					"creation": {
						"codeDepositCost": "281800",
						"executionCost": "300",
						"totalCost": "282100"
					},
					"external": {
						"balances(address)": "1492",
						"chekcBalance()": "339",
						"deposit()": "infinite",
						"withdraw()": "infinite"
					}
				},
				"methodIdentifiers": {
					"balances(address)": "27e235e3",
					"chekcBalance()": "300180e9",
					"deposit()": "d0e30db0",
					"withdraw()": "3ccfd60b"
				}
			},
			"storageLayout": {
				"storage": [
					{
						"astId": 5,
						"contract": "contracts/reentrancyAttack_solution2-1.sol:Bank",
						"label": "balances",
						"offset": 0,
						"slot": "0",
						"type": "t_mapping(t_address,t_uint256)"
					},
					{
						"astId": 7,
						"contract": "contracts/reentrancyAttack_solution2-1.sol:Bank",
						"label": "isEntering",
						"offset": 0,
						"slot": "1",
						"type": "t_bool"
					}
				],
				"types": {
					"t_address": {
						"encoding": "inplace",
						"label": "address",
						"numberOfBytes": "20"
					},
					"t_bool": {
						"encoding": "inplace",
						"label": "bool",
						"numberOfBytes": "1"
					},
					"t_mapping(t_address,t_uint256)": {
						"encoding": "mapping",
						"key": "t_address",
						"label": "mapping(address => uint256)",
						"numberOfBytes": "32",
						"value": "t_uint256"
					},
					"t_uint256": {
						"encoding": "inplace",
						"label": "uint256",
						"numberOfBytes": "32"
					}
				}
			},
			"userdoc": {
				"kind": "user",
				"methods": {},
				"version": 1
			}
		}
	}
}